:04000000FEEFFFF020
:10EB560000A02301FC1F01902201080D012C1401C5
:10EB66004E1601881301922301562401522401D620
:10EB76002001E62301EE2301842301DE23014A233B
:10EB860001781A01A818013A23011010205F00002D
:10EB9600000000000000000000000000000000006F
:10EBA600000000000000000000000000000000005F
:10EBB6000000F8FCFCFCF80000000000000000006B
:10EBC60000000073737300000000000000000000E6
:10EBD60000001E3E3E0000003E3E1E0000000000FB
:10EBE60000000000000000000000000000000030EF
:10EBF6003030FEFE30303030FEFE30303000000C5B
:10EC06000C0C7F7F0C0C0C0C7F7F0C0C0C00000096
:10EC160000F0F898FE9898FE9898180000000000FA
:10EC2600001819197F19197F191F0F00000000001D
:10EC3600000038383880C0E070380000000000005E
:10EC460000001C0E0703011C1C1C00000000000035
:10EC56000038FCC4C4FC380000008000000000003E
:10EC6600001E3F2121333F1E1E37230000000000F7
:10EC76000000203C3C1C00000000000000000000DA
:10EC8600000000000000000000000000000000007E
:10EC96000000C0E0F0381C0C040400000000000076
:10ECA600000003070F1C3830202000000000000081
:10ECB600000004040C1C38F0E0C000000000000056
:10ECC6000000202030381C0F070300000000000061
:10ECD600808890E0E0FCFCE0E09088800000000086
:10ECE60001110907073F3F0707091101000000004E
:10ECF6000000808080F0F08080800000000000002E
:10ED060000000101010F0F010101000000000000D9
:10ED160000000000000000000000000000000000ED
:10ED26000000407878380000000000000000000075
:10ED360000808080808080808080800000000000CD
:10ED460000010101010101010101010000000000B3
:10ED560000000000000000000000000000000000AD
:10ED660000000038383800000000000000000000F5
:10ED76000000000000000080C0E070381C000000A9
:10ED8600002030381C0E07030100000000000000C0
:10ED960000F8FCFC0484E474FCFCF80000000000AD
:10EDA600001F3F3F2E2721203F3F1F00000000008D
:10EDB60000606060F0FCFC00000000000000000045
:10EDC600002020203F3F3F202020000000000000C0
:10EDD60000181C1C040484CCFC78300000000000E1
:10EDE6000030383C2E272321383838000000000038
:10EDF60000181C1C848484CC7C7830000000000041
:10EE060000183838212121333E1E0C000000000076
:10EE16000080C0603018FCFCFC0000000000000010
:10EE26000003030323233F3F3F232300000000008A
:10EE360000FCFCFC8484848484040400000000003C
:10EE460000193939212121333F1F0E00000000002F
:10EE560000E0F0F89C8C84848480000000000000B0
:10EE6600001F3F3F212121213F3F1F0000000000DE
:10EE7600003C3C3C0404040484FCFC7C00000000D0
:10EE860000000000383C3E070301000000000000BF
:10EE960000787CFCC4C48484FC7C780000000000FC
:10EEA600001E3E3F212123233F3E1E00000000009E
:10EEB60000F8FCFC84848484FCFCF800000000005C
:10EEC60000000121212131391F0F07000000000039
:10EED60000000000707070000000000000000000DC
:10EEE600000000000E0E0E000000000000000000F2
:10EEF60000000000707070000000000000000000BC
:10EF0600000000101E1E0E000000000000000000A1
:10EF16000080C0E070381C0E0602000000000000F1
:10EF2600000103070E1C387060400000000000005E
:10EF3600606060606060606060606060000000004B
:10EF46000606060606060606060606060000000073
:10EF56000002060E1C3870E0C080000000000000B1
:10EF660000406070381C0E0703010000000000001E
:10EF760000181C0C0E0686CEFC7C38000000000033
:10EF86000000000000737373000000000000000022
:10EF960000FCFEFE0202C2C2C2FEFEFC0000000031
:10EFA600003F3F7F606063636363430300000000CC
:10EFB60000E0F0F81C0C0C1CF8F0E000000000006B
:10EFC600003F3F3F020202023F3F3F0000000000B9
:10EFD6000004FCFCFC848484FCFC78000000000037
:10EFE60000203F3F3F2121213F3F1E00000000003F
:10EFF60000F0F8FC0C0404041C1C180000000000BF
:10F00600000F1F3F30202020383818000000000075
:10F016000004FCFCFC04040CFCF8F00000000000FA
:10F0260000203F3F3F2020303F1F0F000000000020
:10F036000004FCFCFC848484C4CC1C00000000009A
:10F0460000203F3F3F2121212333380000000000EC
:10F056000004FCFCFC848484C4CC1C00000000007A
:10F0660000203F3F3F210101030300000000000094
:10F0760000F0F8FC0C0404043C3C380000000000DE
:10F08600000F1F3F302022223E3E3E0000000000BF
:10F0960000FCFCFC808080FCFCFC00000000000002
:10F0A600003F3F3F0101013F3F3F000000000000DD
:10F0B60000000404FCFCFC04040000000000000046
:10F0C600000020203F3F3F202000000000000000FD
:10F0D60000000000000404FCFCFC04040000000026
:10F0E6001E1E3E202020203F3F1F00000000000083
:10F0F6000004FCFCFCC0E0703C1C0C00000000009E
:10F1060000203F3F3F03070E3C3830000000000060
:10F116000004FCFCFC0400000000000000000000ED
:10F1260000203F3F3F20202030383C0000000000F8
:10F1360000FCFCFC78F0E0F078FCFCFC0000000031
:10F14600003F3F3F00000100003F3F3F000000003E
:10F1560000FCFCFC70E0C08000FCFCFC0000000031
:10F16600003F3F3F00000103073F3F3F0000000014
:10F1760000E0F0F81C0C0C0C1CF8F0E0000000009D
:10F1860000070F1F38303030381F0F07000000000F
:10F196000004FCFCFC848484FCFC78000000000075
:10F1A60000203F3F3F210101010100000000000057
:10F1B60000E0F8F81C0C040C1CF8F8E00000000055
:10F1C60000071F1F18185C5E7E7F7F470000000047
:10F1D6000004FCFCFC848484FCFC78000000000035
:10F1E60000203F3F3F0101033F3F3C00000000007D
:10F1F6000078FCFC84848484BC3C38000000000059
:10F20600001C3C3D212121213F3F1E000000000043
:10F21600001C0C0404FCFCFC04040C1C0000000094
:10F2260000000020203F3F3F20200000000000009B
:10F2360000FCFCFC000000FCFCFC000000000000E0
:10F24600001F3F3F2020203F3F1F0000000000001E
:10F2560000FCFCFC000000FCFCFC000000000000C0
:10F2660000070F1F3830381F0F070000000000008E
:10F2760000FCFCFC0000800000FCFCFC0000000020
:10F2860000030F3F3C3C0F3C3C3F0F0300000000D7
:10F29600001C3C7CE0C0E07C3C1C00000000000040
:10F2A60000383C3E0703073E3C38000000000000E3
:10F2B600007CFCFC800080FCFC7C00000000000060
:10F2C600000020213F3F3F212000000000000000F9
:10F2D600003C1C0C0484C4E47C3C1C0000000000C0
:10F2E60000383C3E2723212030383C000000000037
:10F2F600000000FCFCFC0404040400000000000004
:10F306000000003F3F3F20202020000000000000BA
:10F31600001C3870E0C08000000000000000000003
:10F3260000000000000103070E1C1830202000001A
:10F3360000000004040404FCFCFC000000000000C3
:10F34600000000202020203F3F3F0000000000007A
:10F35600002030381C0E0E1C383020000000000043
:10F366000000000000000000000000000000000097
:10F37600000000000000000000000000000000C0C7
:10F38600C0C0C0C0C0C0C0C0C0C0C0C0C0C00000F7
:10F39600000C0C3C303000000000000000000000B3
:10F3A6000000000000000000000000000000000057
:10F3B60000004040404040C0C08000000000000007
:10F3C600001C3E3E2222223F1F3F2000000000007C
:10F3D6000004FCFCFC404040C0C08000000000006F
:10F3E60000203F1F3F2020203F3F1F00000000005D
:10F3F6000080C0C0404040C0C08000000000000047
:10F40600001F3F3F2020203939190000000000006E
:10F416000080C0C0404044FCFCFC0400000000002A
:10F42600001F3F3F2020203F1F3F2000000000001C
:10F436000080C0C0404040C0C08000000000000006
:10F44600001F3F3F2222223B3B1B00000000000022
:10F45600008080F8FCFC849C9C18000000000000E2
:10F466000021213F3F3F2121010000000000000054
:10F476000080C0C0404040C080C040000000000086
:10F486000047CFDF989898FFFF7F0000000000003C
:10F496000004FCFCFC804040C0C08000000000006E
:10F4A60000203F3F3F0100003F3F3F0000000000BB
:10F4B6000000404040DCDCDC0000000000000000F2
:10F4C60000002020203F3F3F2020200000000000B9
:10F4D60000000000404040DCDCDC000000000000D2
:10F4E600002060E08080C0FFFF7F00000000000079
:10F4F6000004FCFCFC000080C0C0400000000000CE
:10F5060000203F3F3F02070F3D383000000000005B
:10F516000000040404FCFCFC0000000000000000E5
:10F5260000002020203F3F3F202020000000000058
:10F5360000C0C0C04040C04040C0C08000000000C5
:10F54600003F3F3F00003F00003F3F3F00000000FC
:10F5560000C0C0C0404040C0C080000000000000A5
:10F56600003F3F3F0000003F3F3F0000000000001B
:10F576000080C0C0404040C0C080000000000000C5
:10F58600001F3F3F2020203F3F1F000000000000DB
:10F596000040C080C0404040C0C080000000000065
:10F5A6000080FFFFFF9010101F1F0F0000000000DB
:10F5B60080C0C0404040C080C04000000000000045
:10F5C6000F1F1F101090FFFFFF80000000000000BB
:10F5D6000040C0C0C080C0C0C0C0800000000000A5
:10F5E60000203F3F3F210000010101000000000014
:10F5F6000080C0C040404040C080000000000000C5
:10F6060000193B232626263C3D1900000000000079
:10F61600004040E0F0F8404040400000000000009C
:10F626000000001F3F3F203838180000000000008F
:10F6360000C0C0C0000000C0C0C000000000000044
:10F64600001F3F3F2020203F1F3F200000000000FA
:10F6560000C0C0C0000000C0C0C000000000000024
:10F6660000070F1F3830381F0F070000000000008A
:10F6760000C0C0C00000000000C0C0C00000000004
:10F6860000070F3F38380E38383F0F0700000000DC
:10F6960000C0C0C00000C0C0C000000000000000E4
:10F6A6000030393F0F0F3F393000000000000000E6
:10F6B6000000C0C0C0000000C0C0C00000000000C4
:10F6C6000080878F9FD8F8783F0F07000000000062
:10F6D60000C0C0404040C0C0C000000000000000A4
:10F6E6000031383C2E27233138000000000000008E
:10F6F600008080C0787C3C04040404000000000004
:10F70600000101031E3E3C202020200000000000D6
:10F716000000000000FEFEFE0000000000000000E9
:10F7260000000000007F7F7F000000000000000056
:10F7360000040404043C7C78C080800000000000C3
:10F7460000202020203C3E1E030101000000000096
:10F75600383C3C040C1C3830203C3C1C00000000AB
:10F76600000000000000000000000000000008107B
:10F77600205F000000000000000000000000000004
:10F786000000000000F80000000000000033300018
:10F79600000000100C06100C06000000000000001F
:10F7A600000040C07840C0784000043F04043F0495
:10F7B6000400007088FC08300000001820FF211E9D
:10F7C6000000F008F000E018000000211C031E21D4
:10F7D6001E0000F00888700000001E21232419274F
:10F7E600211010160E0000000000000000000000AE
:10F7F6000000000000E018040200000000071820C6
:10F80600400000020418E000000000402018070035
:10F816000000404080F0804040000202010F0102DB
:10F826000200000000F0000000000101011F0101BC
:10F836000100000000000000000080B07000000021
:10F8460000000000000000000000000101010101AD
:10F856000101000000000000000000303000000040
:10F866000000000000008060180400601806010017
:10F87600000000E010080810E000000F1020201023
:10F886000F00001010F8000000000020203F20208C
:10F896000000007008080888700000302824222123
:10F8A60030000030088888483000001820202011D9
:10F8B6000E000000C02010F8000000070424243FBA
:10F8C600240000F808888808080000192120201163
:10F8D6000E0000E0108888180000000F112020118B
:10F8E6000E0000380808C83808000000003F000075
:10F8F60000000070880808887000001C2221212260
:10F906001C0000E010080810E0000000312222115F
:10F916000F00000000C0C0000000000000303000F2
:10F926000000000000800000000000008060000071
:10F9360000000000804020100800000102040810AA
:10F9460020004040404040404000040404040404B9
:10F956000400000810204080000000201008040267
:10F966000100007048080808F00000000030360169
:10F976000000C030C828E810E00007182724231428
:10F986000B000000C038E0000000203C23020227E4
:10F99600382008F8888888700000203F2020201131
:10F9A6000E00C0300808080838000718202020106C
:10F9B600080008F808080810E000203F2020201062
:10F9C6000F0008F88888E8081000203F2020232030
:10F9D600180008F88888E8081000203F2000030077
:10F9E6000000C03008080838000007182020221E32
:10F9F600020008F808000008F808203F210101214C
:10FA06003F20000808F8080800000020203F2020BA
:10FA1600000000000808F8080800C08080807F0009
:10FA2600000008F888C028180800203F2001263862
:10FA3600200008F8080000000000203F20202020B9
:10FA4600300008F8F800F8F80800203F003F003FB3
:10FA5600200008F830C00008F808203F20000718EA
:10FA66003F00E01008080810E0000F1020202010CA
:10FA76000F0008F808080808F000203F21010101DE
:10FA86000000E01008080810E0000F182424385081
:10FA96004F0008F8888888887000203F2000030CF3
:10FAA60030200070880808083800003820212122FC
:10FAB6001C00180808F8080818000000203F20005D
:10FAC600000008F808000008F808001F2020202081
:10FAD6001F000878880000C83808000007380E01A3
:10FAE6000000F80800F80008F800033C0700073C8F
:10FAF6000300081868808068180820302C03032C3F
:10FB060030200838C800C83808000000203F200010
:10FB1600000010080808C8380800203826212020D0
:10FB26001800000000FE020202000000007F4040B4
:10FB36004000000C30C00000000000000001063844
:10FB4600C00000020202FE000000004040407F00AC
:10FB56000000000004020202040000000000000091
:10FB6600000000000000000000008080808080808F
:10FB76008080000202040000000000000000000077
:10FB860000000000808080800000001924222222CC
:10FB96003F2008F8008080000000003F112020115F
:10FBA6000E000000008080800000000E1120202042
:10FBB6001100000000808088F800000E112020103F
:10FBC6003F200000808080800000001F2222222229
:10FBD6001300008080F0888888180020203F2020AD
:10FBE60000000000808080808000006B94949493D5
:10FBF600600008F8008080800000203F210000207F
:10FC06003F2000809898000000000020203F202020
:10FC16000000000000809898000000C08080807F6F
:10FC2600000008F8000080808000203F24022D306C
:10FC36002000000808F8000000000020203F2020D7
:10FC460000008080808080808000203F20003F2050
:10FC5600003F8080008080800000203F210000203F
:10FC66003F200000808080800000001F2020202090
:10FC76001F00808000808000000080FFA1202011EE
:10FC86000E000000008080808000000E112020A061
:10FC9600FF80808080008080800020203F2120001F
:10FCA600010000008080808080000033242424240A
:10FCB6001900008080E0808000000000001F2020E6
:10FCC60000008080000000808000001F202020109F
:10FCD6003F20808080000080808000010E30080672
:10FCE600010080800080008080800F300C030C3083
:10FCF6000F0000808000808080000020312E0E31B1
:10FD06002000808080000080808080818E701806B0
:10FD1600010000808080808080000021302C22211C
:10FD2600300000000000807C020200000000003F5E
:10FD3600404000000000FF00000000000000FF003F
:10FD460000000002027C800000000040403F0000EE
:10FD56000000000601010202040400000000000089
:10FD660000000608205F0000000000000000002FD1
:10FD7600000000000700070000147F147F14002411
:10FD86002A7F2A120023130864620036495522503E
:10FD960000000503000000001C2241000000412273
:10FDA6001C000014083E08140008083E080800005D
:10FDB60000A0600000080808080800006060000055
:10FDC600002010080402003E5149453E0000427FD3
:10FDD6004000004261514946002141454B3100181F
:10FDE60014127F10002745454539003C4A494930E1
:10FDF600000171090503003649494936000649499B
:10FE0600291E0000363600000000563600000008A5
:10FE16001422410000141414141400004122140882
:10FE260000020151090600324959513E007C121167
:10FE3600127C007F49494936003E41414122007FFC
:10FE46004141221C007F49494941007F09090901B6
:10FE5600003E4149497A007F0808087F0000417F3B
:10FE66004100002040413F01007F08142241007FED
:10FE760040404040007F020C027F007F0408107F54
:10FE8600003E4141413E007F09090906003E4151BD
:10FE9600215E007F0919294600464949493100017A
:10FEA600017F0101003F4040403F001F2040201FCE
:10FEB600003F4038403F0063140814630007087091
:10FEC600080700615149454300007F414100005544
:10FED6002A552A55000041417F0000040201020410
:10FEE60000404040404000000102040000205454FD
:10FEF6005478007F4844443800384444442000384D
:10FF06004444487F00385454541800087E090102BE
:10FF16000018A4A4A47C007F080404780000447D93
:10FF26004000004080847D00007F102844000000CF
:10FF3600417F4000007C04180478007C08040478A3
:10FF460000384444443800FC24242418001824248F
:10FF560018FC007C0804040800485454542000048B
:10FF66003F444020003C4040207C001C2040201C98
:10FF7600003C4030403C004428102844001CA0A00F
:10FF8600A07C004464544C44000008770000000044
:10FF9600007F00000000770800000010081008002D
:10FFA6001414141414140050726F6772616D61207A
:10FFB600493243204C434420496E69636961646F4A
:10FFC600200D0A00436F727269656E646F204D6181
:10FFD600696E200D0A004C4544203D204F4E2000FE
:10FFE6004C4544203D204F46460056414C4F52203A
:09FFF600504F5400257520000055
:020000040001F9
:1000000000000000000000000000000000000000F0
:1000100000000000000000000000000000000000E0
:1000200000000000000000000000000000000000D0
:1000300000000000000000000000000000000000C0
:1000400000000000000000000000000000000000B0
:1000500000000000000000000000000000000000A0
:100060000000000000000000000000000000000090
:100070000000000000000000000000000000000080
:1000800000000000000000000000FCFCFC0C0C0C58
:100090000C0C0C0000C0C0C080C0C0C0C08000807C
:1000A000C0C0C0C08000000000FEFEFE80C0C0C016
:1000B000C0C080000000008080C0C0C0C0C0800000
:1000C0000000008080C0C0C0C080FEFEFE000000B6
:1000D0008080C0C0C0C080FEFEFE0000008080C0E6
:1000E000C0C0C0C080000000008080C0C0C0C08010
:1000F000FEFEFE0000000000000000000000000006
:1001000000000000000000000000FFFFFF83838369
:100110008383800000FFFFFF01000001FFFFFF015C
:10012000000001FFFFFF000000FFFFFFC180808093
:10013000C1FFFF3E00003EFFFFCD8C8C8C8FCFCFE8
:1001400000003EFFFFC1808080C1FFFFFF00003E36
:10015000FFFFC1808080C1FFFFFF00003EFFFFCD99
:100160008C8C8C8FCFCF00003EFFFFC1808080C180
:10017000FFFFFF0000000000000000000000000082
:100180000000000000000000000001010101010169
:100190000101010000010101000000000101010056
:1001A0000000000101010000000101010001010146
:1001B0000100000000000000000101010101010038
:1001C0000000000001010101010001010100000027
:1001D0000001010101010001010100000000000116
:1001E0000101010101000000000001010101010005
:1001F00001010100000000000000000000000000FC
:10020000000000000000000000FCFCFC00000000FA
:100210000000008080C0C0C0C0C080000000FEFEA2
:10022000FE80C0C0C0C0C080000000008080C0C090
:10023000C0C0C08080000000C0C0C080C0C0C0007E
:1002400000008080C0C0C0C0C0800000C0C0F8F8FE
:10025000F8C0C0C000008080C0C0C0C0C0808000A6
:100260000000C0C0C080C0C0C040C0C0800000004E
:100270000080C0C04000000000000000000000003E
:10028000000000000000000000FFFFFF8080808071
:10029000800070F9FD9C8C8CCCFFFFFF0000FFFFFD
:1002A000FFC1808080C1FFFF3E00003EFFFFC18094
:1002B0008080C1FFFF3E0000FFFFFF03010101003E
:1002C0000070F9FD9C8C8CCCFFFFFF000000FFFF4D
:1002D000FF808080003EFFFFC1808080C1FFFF3E25
:1002E0000000FFFFFF0301010100030F3FFEF8C004
:1002F000FCFF1F03000000000000000000000000E1
:1003000000000000000000000001010101010101E6
:1003100001000000010101010001010100000101D3
:1003200001000101010100000000000000000101C6
:1003300001010100000000000101010000000000B7
:1003400000000001010101000101010000000001A5
:100350000101010100000000010101010100000094
:10036000000001010100000000000000181D1F0F27
:10037000030000000000000000000000000000007A
:10038000000000000000000000000000000000006D
:10039000000000000000000000000000000000005D
:1003A000000000000000000000000000000000004D
:1003B000000000000000000000000000000000003D
:1003C000000000000000000000000000000000002D
:1003D000000000000000000000000000000000001D
:1003E000000000000000000000000000000000000D
:1003F00000000000000000000000000000000000FD
:10040000000E2A6E000E296E000E2C6E000E2B6E52
:10041000000E1E6E000E1D6E3FC518F5070E181655
:10042000D8A415EF82F017EF82F013EF83F03EC5EA
:1004300009F50A6A000E046E080E036E3FC501F549
:10044000026A54EC88F001C50BF502C50CF592EC7C
:1004500090F009C51BF50AC51CF54050175C096EE4
:100460000A6AD8A00A061BC50BF51CC50CF592EC50
:1004700090F0040E0924236E000E0A20246E000E54
:100480002A6E000E296EFDEF82F0000E2C6E000E1B
:100490002B6EEDEF82F03EC509F50A6A29C50BF512
:1004A0002AC50CF592EC90F009503C24186E0A50C5
:1004B0003D20196E23501826245019222B5018263F
:1004C0002C50192218C5F6F419C5F7F4000EF86E71
:1004D0000800F5501D6E1E6A000E2D6E2DC518F514
:1004E000010E196E000E1A6E182A7AEF82F0D8905B
:1004F00019361A36182E77EF82F01D5019161E5035
:100500001A1619501A10D8B488EF82F08AEF82F0C8
:10051000D8EF82F04250D8A490EF82F092EF82F0B0
:10052000B5EF82F02B501324096E2C5014200A6E64
:100530002D5029C518F52AC519F5D8901836193641
:10054000D89018361936D890183619361826000E55
:100550001922155018240B6E165019200C6E010E1E
:100560000D6EAEEC85F0E2EF82F02B501324096E95
:100570002C5014200A6E2D5029C518F52AC519F5DE
:10058000D89018361936D89018361936D8901836AB
:1005900019361826000E1922155018240B6E165005
:1005A00019200C6E000E0D6EAEEC85F0E2EF82F0BD
:1005B0004250D8A4DEEF82F0E0EF82F092EF82F0BA
:1005C000B5EF82F02D2A070E2D64E9EF82F0EBEFF4
:1005D00082F06EEF82F02B4A2C2A3E50186E196A78
:1005E00018502B5C19502C58D8A0F9EF82F0FBEF73
:1005F00082F04BEF82F0294A2A2A3FC501F5026AB0
:10060000000E046E080E036E54EC88F00150295C55
:1006100002502A58D8A00FEF83F011EF83F045EF76
:1006200082F0EBEF83F04050175C096E0A6AD8A0A5
:100630000A06000E046E080E036E3E503F02F3C41D
:1006400001F5F4C402F554EC88F001C50BF502C5C0
:100650000CF592EC90F0040E0924236E000E0A2093
:10066000246E23503C24186E24503D20196E18C56A
:10067000F6F419C5F7F4000EF86E0800F5501F6E79
:10068000206A000E226E070E216E000E266E000EEE
:10069000256ED9EF83F0000E286E000E276EC5EF91
:1006A00083F021C518F5010E196E000E1A6E182A76
:1006B0005DEF83F0D89019361A36182E5AEF83F072
:1006C0001F50191620501A1619501A10D8B46BEF73
:1006D00083F06DEF83F099EF83F04250D8A473EF6D
:1006E00083F075EF83F087EF83F025501324096EB4
:1006F000265014200A6E275015240B6E2850162001
:100700000C6E010E0D6EAEEC85F0A3EF83F025505C
:100710001324096E265014200A6E275015240B6EE0
:10072000285016200C6E000E0D6EAEEC85F0A3EF77
:1007300083F04250D8A49FEF83F0A1EF83F075EFD0
:1007400083F087EF83F02106D8A0220622BEADEF0A
:1007500083F0ABEF83F0C3EF83F0000E226E070E41
:10076000216E234A242A23503C24186E24503D2015
:10077000196E18C5F6F419C5F7F4000EF86E0800E6
:10078000F5501F6E206A274A282A3F50186E196AB2
:100790001850275C2850800A1A6E1950800A1A587F
:1007A000D8A0D5EF83F0D7EF83F051EF83F0254A3F
:1007B000262A3E50186E196A1850255C2650800A69
:1007C0001A6E1950800A1A58D8A0E9EF83F0EBEF9F
:1007D00083F04BEF83F0120030EC91F0AD0E236EFE
:1007E000FF0E246E7FEC90F0520E396E2B0E386E99
:1007F000000EE82EFED7382EFCD7392EFAD700D0BF
:10080000520E396E2B0E386E000EE82EFED7382EA3
:10081000FCD7392EFAD700D0520E396E2B0E386E17
:10082000000EE82EFED7382EFCD7392EFAD700D08E
:10083000520E396E2B0E386E000EE82EFED7382E73
:10084000FCD7392EFAD700D0CA0E236EFF0E246EC5
:100850007FEC90F061EC8AF0B6EC88F0740E016EDB
:10086000F70E026E66EC8BF0000E2F6E1E0E2E6ED3
:10087000000E316E000E306EF00E326EFF0E336ED3
:1008800015EC87F0000E1E6E060E1D6E000E206E1B
:10089000140E1F6E000E226E790E216E000E246E55
:1008A0003F0E236E010E256EA6EC8AF0F0EC87F069
:1008B000000EE6EC8FF001C53AF502C53BF5AA0E35
:1008C000236E050E246EFA0E256EFF0E266E3AC5B7
:1008D00027F53BC528F5FFEC8EF0900E016EEB0E70
:1008E000026E66EC8BF0000E2F6E1E0E2E6E000E4A
:1008F000316E1A0E306EAA0E326E050E336E15EC86
:1009000087F03BBE8DEF84F0F10E3A5C0A0E3B5847
:10091000D8A08DEF84F08FEF84F0A6EF84F0C3961B
:10092000680E016EFD0E026E66EC8BF0000E2F6EEF
:100930001E0E2E6E000E316E320E306EDC0E326EDA
:10094000FF0E336E15EC87F0BBEF84F0C386680EA4
:10095000016EFD0E026E66EC8BF0000E2F6E1E0E09
:100960002E6E000E316E320E306EE60E326EFF0EBF
:10097000336E15EC87F0F0EC87F0290E396E960E89
:10098000386E7F0EE82EFED7382EFCD7392EFAD7D8
:10099000000058EF84F0FEEFFFF00EC5D9F40FC54C
:1009A000DAF4DEC4F6F4DDC4F7F4000EF86E0800E5
:1009B000F550250AD8A4DFEF84F0E1EF84F097EF3B
:1009C00085F00EC5D9F40FC5DAF4DE2A000EDD225B
:1009D000000E446E000E436E43C54BF545684668F5
:1009E0000EC5D9F40FC5DAF4DEC414F5DDC415F56F
:1009F00014C5F6F415C5F7F4000EF86E0800F550AE
:100A0000750AD8A406EF85F008EF85F08EEF85F023
:100A100010C5D9F411C5DAF4DFC412F5020EDE26D2
:100A2000DFC413F5000EDD2212C5D9F413C5DAF4C4
:100A3000DEC416F5DDC417F5010E1424126E000E87
:100A40001520136E0EC5D9F40FC5DAF412C5DEF405
:100A500013C5DDF480EF85F0200E1A6E1A068A0E9B
:100A60001A24D96EDA6A050EDA2216C501F517C501
:100A700002F5000E046E0A0E036E73EC8DF0015049
:100A8000300FDF6E16C501F517C502F5000E046EB6
:100A90000A0E036E8FEC8CF001C516F502C517F532
:100AA00016501710D8B457EF85F059EF85F075EF51
:100AB00085F01A50D8A45FEF85F061EF85F02EEF36
:100AC00085F075EF85F08A0E1A24D96EDA6A050E64
:100AD000DA22DF50126E1250036E046A0CC505F55F
:100AE0000DC506F58BEC87F01A2A200E1A18D8A42B
:100AF0007CEF85F07EEF85F063EF85F0ADEF85F05C
:100B000014C5F6F415C5F7F4000EF86E0800F5509C
:100B1000750AD8B42CEF85F08EEF85F00EC5D9F4A8
:100B20000FC5DAF4DE2A000EDD22ADEF85F00EC52A
:100B3000D9F40FC5DAF4DEC4F6F4DDC4F7F4000E20
:100B4000F86E0800F550036E046A0CC505F50DC576
:100B500006F58BEC87F08EEF85F012000ABEB3EF3E
:100B600085F0B5EF85F083EF86F025EC92F00E6E00
:100B70000F6A0E50095C0A50800A106E0F50800AEE
:100B80001058D8B0C6EF85F0C8EF85F083EF86F037
:100B90000CBECDEF85F0CFEF85F083EF86F027EC2C
:100BA00092F00E6E0F6A0E500B5C0C50800A106EA5
:100BB0000F50800A1058D8A0E0EF85F0E2EF85F0E2
:100BC00074EF86F083EF86F00BC50EF5070E0E1658
:100BD000010E0F6E0E2AEFEF85F0D8900F360E2E15
:100BE000EDEF85F00BC501F50CC502F5000E046EA6
:100BF000080E036E54EC88F0070ED89001360236CA
:100C0000E82EFDEF85F0DC0E0124106E050E0220AB
:100C1000116E09501024D96E0A501120DA6E0F504F
:100C2000DF1283EF86F00BC50EF5070E0E16010ED0
:100C30000F6E0E2A1EEF86F0D8900F360E2E1CEF88
:100C400086F00F50FF0A106E0BC501F50CC502F5BA
:100C5000000E046E080E036E54EC88F0070ED89058
:100C600001360236E82E2FEF86F0DC0E0124116EDD
:100C7000050E0220126E09501124D96E0A5012205E
:100C8000DA6E1050DF1683EF86F00BC50EF5070EF7
:100C90000E16010E0F6E0E2A50EF86F0D8900F360A
:100CA0000E2E4EEF86F00BC501F50CC502F5000EB9
:100CB000046E080E036E54EC88F0070ED8900136CF
:100CC0000236E82E5EEF86F0DC0E0124106E050E73
:100CD0000220116E09501024D96E0A501120DA6ECC
:100CE0000F50DF1A83EF86F00D50000AD8B413EFCF
:100CF00086F0010AD8B4E4EF85F0030AD8B445EFD2
:100D000086F083EF86F012005EEC91F00009D8B413
:100D10008CEF86F08EEF86F0CAEF86F09BEF86F0C0
:100D2000C9EC91F014EF87F02BEC92F014EF87F000
:100D3000000E14EF87F078C50CF579C50DF521EE9E
:100D400069F102D8AEEF86F00500FA6EDE50FD6E56
:100D5000DE50FE6EDE50FF6EFA5012000E6E0F6A0D
:100D60000F50000AD8B4B7EF86F098EF86F00E5017
:100D7000010AD8B498EF86F0030AD8B490EF86F051
:100D8000010AD8B494EF86F0070AD8B498EF86F039
:100D900098EF86F053EC91F00009D8B4D2EF86F0CA
:100DA000D4EF86F013EF87F005018951030B00099A
:100DB000D8B4DDEF86F0DFEF86F0EBEF86F0010EC2
:100DC0000E6E8951030B0F6E0E500F5E89510F1876
:100DD000FC0B0F18896F83C5D9F484C5DAF4DF5092
:100DE000126E834B842B8507D8A086078551861108
:100DF000D8A4FDEF86F0FFEF86F007EF87F027EC31
:100E00008BF00E6E0E50106E116A0BEF87F0000E15
:100E1000116E030E106E10C513F51250FBEC91F01D
:100E2000135014EF87F0030E120032C501F533C5DD
:100E300002F5D7EC8EF00150376EFE0E2E182F10F3
:100E4000D8A425EF87F027EF87F035EF87F03750EC
:100E50003E02F3C434F5F4C435F5345080082E6EE8
:100E60003550D8A0E82A00082F6E2E282F10D8A4BD
:100E70003CEF87F03EEF87F056EF87F037503E02A9
:100E8000F3C434F5F4C435F534508008016E3550A0
:100E9000D8A0E82A0008026E000E046E020E036E4F
:100EA00054EC88F001C52EF502C52FF5000E366E04
:100EB00081EF87F036503E02F3C434F5F4C435F5C3
:100EC0002E503424136E2F503520146E30C515F576
:100ED00031C516F532C5F6F433C5F7F4000EF86ED9
:100EE000240EF76403D00800F55005D0F6C4E9F4E9
:100EF000F7C4EAF4EF50176E00EC82F0324A332A5E
:100F0000362A3750365CD8A088EF87F08AEF87F012
:100F10005AEF87F0120005500610D8B492EF87F010
:100F200094EF87F09DEF87F005500610D8A49BEF53
:100F300087F09DEF87F0A2EF87F00350DCEC91F093
:100F4000EFEF87F020EE0AF00550D9260650DA229E
:100F5000DE50DE10D8B4AFEF87F0B1EF87F0CCEF02
:100F600087F020EE0AF00550D9260650DA2210EE5E
:100F700003F00550E1260650E222DE50E65CE65022
:100F8000800A0B6EDE50800A0B58D8B0CAEF87F08B
:100F9000CCEF87F0EFEF87F020EE03F00550D92675
:100FA0000650DA22DEC407F5DDC408F505C5D9F41C
:100FB00006C5DAF4DEC409F5DDC40AF507500924D4
:100FC000D96E08500A20DA6E03C5DFF420EE03F074
:100FD0000550D9260650DA22DE2A000EDD22120044
:100FE000000E2F6E210E41EC90F0000E41EC90F0BF
:100FF0007F0E41EC90F0220E41EC90F0000E41EC9F
:1010000090F0070E41EC90F0000E336E000E326E41
:10101000400E1E6E000E316E010E306E22EF88F013
:10102000DC0E3224D96E050E3320DA6E1E0E30240B
:10103000E16E050E3120E26EDFC4E7F4304A312A5A
:10104000324A332A31BE30EF88F0315007E1110EB9
:10105000305CD8B02EEF88F030EF88F03CEF88F0AD
:1010600033BE3AEF88F0040E335CD8A03AEF88F034
:101070003CEF88F010EF88F01E0E166E050E176E0E
:10108000000E196E110E186E3C0EA5EC8DF033BEDD
:1010900051EF88F0040E335CD8A051EF88F053EF85
:1010A00088F008EF88F01200000E066E04BE5DEFB7
:1010B00088F05BEF88F063EF88F0036C041ED8B013
:1010C000042A010E066E02BE6AEF88F068EF88F00F
:1010D00070EF88F0016C021ED8B0022A010E061AC9
:1010E000000E086E000E076E03500410D8B47BEF9C
:1010F00088F07DEF88F0A5EF88F0010E056E85EF92
:1011000088F0D89003360436052A04AE8AEF88F0BA
:101110008CEF88F081EF88F0D890073608360350BE
:10112000015C04500258D8A098EF88F09AEF88F03C
:101130009FEF88F00350015E0450025A0780D89058
:1011400004320332052E8CEF88F00650D8B4ABEF92
:1011500088F0ADEF88F0B1EF88F0076C081ED8B0CA
:10116000082A07C501F508C502F51200090E356EFB
:101170001E0E346EE40EE82EFED7342EFCD7352E2C
:10118000FAD700D0AE0E41EC90F0D50E41EC90F0C5
:10119000800E41EC90F0A80E41EC90F03F0E41EC37
:1011A00090F0D30E41EC90F0000E41EC90F0400E28
:1011B00041EC90F08D0E41EC90F0140E41EC90F06B
:1011C000200E41EC90F0000E41EC90F0A10E41ECAD
:1011D00090F0C80E41EC90F0DA0E41EC90F0120E57
:1011E00041EC90F0810E41EC90F0CF0E41EC90F08C
:1011F000D90E41EC90F0F10E41EC90F0DB0E41EC99
:1012000090F0400E41EC90F0A40E41EC90F0A60E50
:1012100041EC90F02E0E41EC90F0AF0E41EC90F0CE
:10122000DAEC90F0F0EC87F01200000EC26E000EC7
:10123000C16E000EBE6E000EC36E000EBF6E000EBD
:10124000C06E070ECA6EF50ECB6EC668C768E70E95
:10125000C86EC96804011869E70E106F0869070EA7
:10126000206FFE0E286F0069000E196F000E296FA7
:10127000000E216F000E096F000E016F000E116F3E
:10128000000E0201896F000E886F000E876F000E3E
:10129000866F000E0401226F000E2A6F000E026F8F
:1012A000000E0A6F180E126F000E1A6F03690B6999
:1012B00013691B69070E236F2B6904690C69146994
:1012C0001C690F0E246F2C69140E0201706F370E0B
:1012D000146F380E156F200E2A6F280E726F130EC2
:1012E000716F1200016E010E026E050189B77BEF6E
:1012F00089F07DEF89F0C2EF89F001C582F589950B
:101300008987FC0E89170F0E876F010E816FF40E0F
:10131000806F89895E0E606F240E616F010E626FAF
:10132000000E726F000E736F5E0E636F240E646F9B
:10133000010E656F000E746F000E756F5E0E666FA6
:10134000240E676F010E686F000E766F000E776FC8
:101350005E0E696F240E6A6F010E6B6F000E786F60
:10136000000E796F5A0E6C6F240E6D6F010E6E6F4A
:10137000000E7A6F000E7B6F03EC92F056EC90F04B
:10138000000E026E0250120005018989E8EF89F013
:1013900016EC92F0080E15EF8AF016EC92F0070E9C
:1013A00015EF8AF005018529FFEC91F0040E15EF89
:1013B0008AF0070E05018719D8B4E1EF89F0E3EF51
:1013C00089F0E5EF89F019EC92F00F0E15EF8AF035
:1013D00072C50CF573C50DF502D8F9EF89F005005B
:1013E000FA6E6051FD6E6151FE6E6251FF6EFA50F1
:1013F00012000E6E0F6A0F50000AD8B402EF8AF086
:10140000D9EF89F00E50010AD8B4D9EF89F0030A58
:10141000D8B4CDEF89F0010AD8B4C8EF89F0070A33
:10142000D8B4D2EF89F0D9EF89F0120069EC91F0CD
:101430000009D8A41EEF8AF020EF8AF023EF8AF08B
:10144000040E60EF8AF005018951030B0009D8B43E
:101450002CEF8AF02EEF8AF03AEF8AF0010E106E30
:101460008951030B116E1050115E89511118FC0B3C
:101470001118896F8507D8A0860785518611D8B4C1
:1014800044EF8AF046EF8AF052EF8AF013EC92F0C4
:1014900083C5D9F484C5DAF4DF6E0501834B842B50
:1014A00020EF8AF0C4EC89F0126E13EC92F083C541
:1014B000D9F484C5DAF4DF6E0501834B842B125016
:1014C0001200000E95EC91F0020E216E380E206E87
:1014D000AD0EE82EFED7202EFCD7212EFAD7000025
:1014E000030E15EC90F0680E206EE40EE82EFED789
:1014F000202EFCD700D0030E15EC90F0E40E00D0A7
:1015000000D0E82EFCD700D000D0030E15EC90F0F0
:10151000020E15EC90F0280EE1EC91F0C50EE82ECD
:10152000FED70000070E4C6E0F0EE1EC91F0C50ED9
:10153000E82EFED70000010EE1EC91F02A0E206E9D
:101540008E0EE82EFED7202EFCD712001DC513F5F7
:101550001EC514F521C515F522C516F51FC517F5CD
:1015600020C518F525C519F5DEEC8BF01DC513F562
:101570001EC514F521C515F522C516F523C517F5A9
:1015800024C518F525C519F5DEEC8BF01FC513F53C
:1015900020C514F523C515F524C516F51DC517F589
:1015A0001EC518F525C519F5A3EC8BF01FC513F55D
:1015B00020C514F523C515F524C516F521C517F565
:1015C00022C518F525C519F5A3EC8BF01200066E9F
:1015D000015002100310D8B4F0EF8AF0F2EF8AF055
:1015E0000EEF8BF00650030D600EF324D96E050E3E
:1015F000F420DA6E01C5DEF402C5DEF403C5DEF4C4
:101600000650020D720EF324D96E050EF420DA6E28
:1016100004C5DEF405C5DDF426EF8BF00650030D9E
:10162000600EF324D96E050EF420DA6E5E0EDE6EC7
:10163000240EDE6E010EDE6E0650020D720EF324D5
:10164000D96E050EF420DA6EDE6ADD6A120005013D
:1016500089893CEF8BF016EC92F0070E65EF8BF06A
:1016600005018529FFEC91F0030E65EF8BF019EC75
:1016700092F00A0E65EF8BF072C50CF573C50DF58F
:1016800002D84DEF8BF00500FA6E6051FD6E61518E
:10169000FE6E6251FF6EFA5012000E6E0F6A0F500E
:1016A000000AD8B456EF8BF037EF8BF00E50010ADA
:1016B000D8B437EF8BF0030AD8B42BEF8BF0060ABF
:1016C000D8B430EF8BF037EF8BF0120001C53CF54A
:1016D00002C53DF501C5F6F402C5F7F4000EF86E3B
:1016E0000800F5C43EF5010E0124036E000E022031
:1016F000046E03C5F6F404C5F7F4000EF86E080096
:10170000F5C43FF5020E0124036E000E0220046EA4
:1017100003C5F6F404C5F7F4000EF86E0800F5C42E
:1017200040F5030E0124036E000E0220046E03C573
:10173000F6F404C5F7F4000EF86E0800F5C441F5A0
:10174000000E426E12001350155C1650800A1A6E7D
:101750001450800A1A58D8B0B0EF8BF0B2EF8BF06B
:10176000CEEF8BF013C51BF514C51CF515C513F58D
:1017700016C514F51BC515F51CC516F5CEEF8BF077
:1017800017C509F518C50AF513C50BF514C50CF5F1
:1017900019C50DF5AEEC85F0134A142A1350155CEB
:1017A0001650800A1A6E1450800A1A58D8B0DBEF0F
:1017B0008BF0DDEF8BF0C0EF8BF012001350155C57
:1017C0001650800A1A6E1450800A1A58D8B0EBEFDF
:1017D0008BF0EDEF8BF009EF8CF013C51BF514C502
:1017E0001CF515C513F516C514F51BC515F51CC557
:1017F00016F509EF8CF013C509F514C50AF517C5E0
:101800000BF518C50CF519C50DF5AEEC85F0134AAE
:10181000142A1350155C1650800A1A6E1450800A50
:101820001A58D8B016EF8CF018EF8CF0FBEF8BF055
:101830001200176E175072EC89F00009D8B423EF2C
:101840008CF025EF8CF01AEF8CF00C0E076E1F0E4B
:10185000086E010E096E160E0A6E050E0B6E14EC64
:1018600091F0160E016E050E026E000E046E010E52
:10187000036EB7EC90F0000E076E000E086E000EBF
:10188000096E000E0A6E000E0B6E06EC91F0EBEC8A
:1018900091F02BEC90F0E806D8B451EF8CF053EFB8
:1018A0008CF049EF8CF0120003EC92F0020E05016F
:1018B000886F67EF8CF0C9EC91F08EEF8CF02BEC19
:1018C00092F08EEF8CF0A5EC91F08EEF8CF074C559
:1018D0000CF575C50DF521EE63F102D87AEF8CF0A9
:1018E0000500FA6EDE50FD6EDE50FE6EDE50FF6EBD
:1018F000FA5012000E6E0F6A0F50000AD8B483EF30
:101900008CF063EF8CF00E50020AD8B45BEF8CF0D1
:10191000010AD8B45FEF8CF063EF8CF01200000E78
:10192000066E000E056E03500410D8B49AEF8CF0CA
:101930009CEF8CF0C4EF8CF0010E076EA4EF8CF0DE
:10194000D89003360436072A04AEA9EF8CF0ABEF2B
:101950008CF0A0EF8CF0D890053606360350015C71
:1019600004500258D8A0B7EF8CF0B9EF8CF0BEEF5E
:101970008CF00350015E0450025A0580D890043266
:101980000332072EABEF8CF005C501F506C502F555
:101990001200000E0201A56F000EA66F000EA76FC9
:1019A000000EA86F000EA96F000EAA6FB00EAB6FED
:1019B000800EAC6F000EAD6F820EAE6F060EAF6F75
:1019C000000EB06F000EB16F000EB26F000EB36F5D
:1019D000000E016E000E026E000E036EB4EC91F06C
:1019E000000E016E000E026E000E036EADEC91F063
:1019F000000E016E000E026E000E036EBBEC91F045
:101A0000000E4D6E1200AEEC8EF005018951030BF5
:101A10000009D8B40EEF8DF010EF8DF01DEF8DF0B2
:101A20005EEC91F00009D8B418EF8DF01AEF8DF04C
:101A30001DEF8DF0100E0501876F05018751030D15
:101A4000570EF324F66EEB0EF420F76EF86A000ED4
:101A5000F82202D839EF8DF00500FA6E0900F55032
:101A6000FD6E0900F550FE6E0900F550FF6EFA504C
:101A700012000501876F1200FC0E05018917020E86
:101A8000886F89954BEF8DF029EC92F072EF8DF015
:101A90000F0E72EF8DF076C50CF577C50DF521EEC2
:101AA00066F102D85EEF8DF00500FA6EDE50FD6E35
:101AB000DE50FE6EDE50FF6EFA5012000E6E0F6AA0
:101AC0000F50000AD8B467EF8DF048EF8DF00E503C
:101AD000020AD8B444EF8DF0010AD8B444EF8DF077
:101AE00048EF8DF0120003500410D8B47AEF8DF057
:101AF0007CEF8DF0A0EF8DF0010E056E84EF8DF080
:101B0000D89003360436052A04AE89EF8DF08BEFAA
:101B10008DF080EF8DF00350015C04500258D8A086
:101B200094EF8DF096EF8DF09AEF8DF00350015EFB
:101B30000450025AD89004320332052E8BEF8DF0F8
:101B400001C501F502C502F512001A6E1A5072ECB9
:101B500089F00009D8B4AFEF8DF0B1EF8DF0A6EFAA
:101B60008DF016C501F517C502F518C503F519C5A1
:101B700004F5B7EC90F0000E076E000E086E000E34
:101B8000096E000E0A6E000E0B6E06EC91F0EBEC87
:101B900091F02BEC90F0E806D8B4D1EF8DF0D3EFB4
:101BA0008DF0C9EF8DF01200000E0301D96F000E09
:101BB000DA6F000EDB6F000EDC6F000EDF6F000EC1
:101BC000E06F000EE56F000EE76F000EEC6F000E89
:101BD000EE6F000EEF6F000EF06F000EF16F000E53
:101BE000F26F000EF46F100EF56F000EF66F000E20
:101BF000F76F000EF86F000EF96F3F0EFA6F840E4C
:101C0000F36F1200000EF66E000EF76E010EF86E06
:101C100001EEDCF111EE00F00900F5C4EEF4E55040
:101C2000E150FAE1E250F8E1620EF66E240EF76E32
:101C3000010EF86E0900F5C457F50900F5C458F512
:101C400001EE60F17C0EEE6AE806FDE101EE3CF18A
:101C5000120EEE6AE806FDE10001ECEF83F0B5A29A
:101C600034EF8EF036EF8EF038EF8EF05BEF8EF0C3
:101C7000B5A03DEF8EF03FEF8EF041EF8EF05BEFC1
:101C80008EF002019AA547EF8EF049EF8EF04BEFF0
:101C90008EF05BEF8EF09AAF50EF8EF052EF8EF039
:101CA00054EF8EF05BEF8EF097A959EF8EF05BEF5B
:101CB0008EF02FEF8EF012001DC521F51EC522F506
:101CC00070EF8EF01BC50CF51CC50DF5210E0E6EC8
:101CD000050E0F6E1FC510F520C511F5CDEC84F073
:101CE00021C5F6F422C5F7F4000EF86E0800F55091
:101CF0000009D8A47EEF8EF080EF8EF062EF8EF0B8
:101D0000000E1C6E000E1B6E1200146E010E156E7E
:101D1000050189B58EEF8EF090EF8EF0ACEF8EF06E
:101D20008985000E156E8551FFEC91F01450D8B4E2
:101D30009CEF8EF09EEF8EF0A5EF8EF0040E050165
:101D4000876FFEEC8FF0AAEF8EF0030E0501876F10
:101D500048EC91F0E9EC90F0155012008AEC91F00B
:101D60000009D8B4B6EF8EF0B8EF8EF0BCEF8EF06D
:101D700022EC92F0D6EF8EF074EC91F00009D8B41A
:101D8000C4EF8EF0C6EF8EF0CAEF8EF01CEC92F02E
:101D9000D6EF8EF07FEC91F00009D8B4D2EF8EF040
:101DA000D4EF8EF0D6EF8EF01FEC92F0120001C54A
:101DB00003F502C504F5DFEF8EF0014A022A01C5E2
:101DC000F6F402C5F7F4000EF86E240EF76403D0A3
:101DD0000800F55005D0F6C4E9F4F7C4EAF4EF5072
:101DE0000009D8A4F6EF8EF0F8EF8EF0DDEF8EF05C
:101DF0000350015C016E04500258026E1200270E5F
:101E0000296E050E2A6E23C52BF524C52CF5000E70
:101E10002F6E000E2E6E000E366E000E356E2B0EDF
:101E20001B6E050E1C6E25C51DF526C51EF5290E5B
:101E30001F6E050E206E5CEC8EF02E502324D96EA2
:101E40002F502420DA6EDF6A12001A6E2EEF8FF008
:101E50001A9039EF8FF01A8039EF8FF01950000A7D
:101E6000D8B428EF8FF0010AD8B42BEF8FF039EFF8
:101E70008FF01A5095EC91F01A841A5095EC91F06D
:101E80001A941A5095EC91F0A00EE82EFED712008D
:101E900020EE02F00C50D9260D50DA22DEC401F5F6
:101EA000DDC402F50CC5D9F40DC5DAF4DEC403F5C2
:101EB000DDC404F5B7EC90F0000E076E000E086E5E
:101EC000000E096E000E0A6E000E0B6E14EC91F0FF
:101ED000020E120001C507F502C508F578EF8FF074
:101EE00007C5D9F408C5DAF403C5DFF4074A082AA0
:101EF0000506D8A00606052806E10628D8A483EF23
:101F00008FF085EF8FF070EF8FF012000CC501F5A8
:101F10000DC502F5000E046E010E036EB7EC90F0D5
:101F2000000E076E000E086E000E096E000E0A6E9F
:101F3000000E0B6E14EC91F0040E12000CC501F5AE
:101F40000DC502F5000E046E020E036EB7EC90F0A4
:101F5000000E076E000E086E000E096E000E0A6E6F
:101F6000000E0B6E14EC91F0020E12000CC501F580
:101F70000DC502F5000E046E010E036EB7EC90F075
:101F8000000E076E000E086E000E096E000E0A6E3F
:101F9000000E0B6E14EC91F0020E12000CC501F550
:101FA0000DC502F5000E046E020E036EB7EC90F044
:101FB000000E076E000E086E000E096E000E0A6E0F
:101FC000000E0B6E14EC91F0040E1200056E05C5A8
:101FD000ECF30301F38FF39DF381F3B1F2EF8FF094
:101FE000F4EF8FF0EDEF8FF0EB51046E036AEA51DE
:101FF0000324016E000E0420026E120005018951B7
:10200000FC0B0209896F85058611D8A40AEF90F0B0
:102010000CEF90F00EEF90F0C4EC89F0D880050141
:102020008235FBEC91F0040E12001E6E1E50F00B78
:102030001C6E1EC51BF50F0E1B161B38F00B1D6EFC
:10204000000E196E1C5025EC8FF0000E196E1D50FD
:1020500025EC8FF01200010E016E050189B533EFFA
:1020600090F035EF90F03FEF90F08997826903ECA4
:1020700092F022EC91F0D6EC91F088C501F5015078
:1020800012001B6E000E1D6E000E1C6E000E1C6EEC
:102090001BC51DF51C0E166E050E176E000E196E73
:1020A000020E186E3C0EA5EC8DF01200020194BFDA
:1020B0005CEF90F05EEF90F06AEF90F0000E9A6F98
:1020C000000E9B6F000E976F8D69510E876F510E3A
:1020D000866F948F12000AEC92F007EC92F00009E0
:1020E000D8B475EF90F077EF90F07DEF90F0000EA0
:1020F000FFEC91F0000EFBEC91F0000E1200250EAB
:10210000256E050E266E000E1B6E000E1C6E23C57E
:102110001DF524C51EF5250E1F6E050E206E5CEC08
:102120008EF0120009500B02F3C40DF5F4C40EF545
:1021300009500C02F3500E260A500B02F3500E26E3
:102140000DC509F50EC50AF51200000E0001606FFD
:10215000000E616F000E636F000E646F000E656FFE
:10216000000E666F000E676F000E686F12000501AB
:1021700089A9BDEF90F0BFEF90F0C8EF90F001C5D6
:1021800083F502C584F503C585F504C586F58999EF
:102190001200040E0201946F800E956F180E966F58
:1021A000030E9C6F000E9A6F000E9B6F000E976FD0
:1021B0008D691200DC0E016E050E026E000E046EBB
:1021C000000E036E040E066E000E056E6AEC8FF0B4
:1021D0001200EFEF90F02FEC8EF003EC8DF0050184
:1021E00089B5F5EF90F0F7EF90F0EBEF90F012007B
:1021F000600E0001AD6F000EAF6F000EB36F080EE2
:10220000B16F000EB06F000EAC6F120007C501F584
:1022100008C502F509C503F50AC504F50BC505F5A2
:10222000020EE7EC8AF0120007C501F508C502F5B9
:1022300009C503F50AC504F50BC505F5000EE7EC65
:102240008AF01200A594A596A590A59202019B91F3
:102250009B959B9F9B9D9B9397939795979112001E
:10226000A5EC90F0C9EC90F015EC89F0F8EC90F04A
:10227000D4EC8DF0C9EC8CF01200016EB2A243EFE9
:1022800091F045EF91F03EEF91F001C5A3F21200FD
:1022900005018951FC0B0209896F82518225FBECF3
:1022A00091F0030E1200020199BB59EF91F05CEF1F
:1022B00091F0010E5DEF91F0000E1200020195BB4E
:1022C00064EF91F067EF91F0010E68EF91F0000E6E
:1022D0001200020199B16FEF91F072EF91F0010ECF
:1022E00073EF91F0000E120002019AB57AEF91F0AF
:1022F0007DEF91F0010E7EEF91F0000E12000201D1
:1023000097B985EF91F088EF91F0010E89EF91F088
:10231000000E120002019ABF90EF91F093EF91F03E
:10232000010E94EF91F0000E1200186E185008097B
:10233000166E270E19EC8CF01200E6EC91F00501F8
:102340008995020E886F0F0E1200E6EC91F00501E0
:102350008995000E886F0F0E120001C551F502C558
:1023600052F503C553F5120001C554F502C555F5E4
:1023700003C556F5120001C54EF502C54FF503C55C
:1023800050F512000DEC92F00AEC92F0D0EC91F0C6
:10239000120005018551FFEC91F0FEEC8FF0120068
:1023A00005018995000E886F0F0E12000201949F9F
:1023B000000E9A6F99851200026E02503DEC91F06A
:1023C00012001F6E1F5015EC90F012000201949F36
:1023D0009985948F1200000E85EC8EF012000DECA2
:1023E00092F0090E120010EC92F0040E120010ECA4
:1023F00092F0030E1200016E01C58CF21200016E04
:1024000001C58DF21200000E02019A6F1200020146
:102410008D5112000201949B12000201958D120051
:102420000201959D120002018B5112000201948D50
:1024300012000201949D120002019A9512000201FD
:102440009799120002019A9F1200800E1200400E0E
:102450001200010E1200020E1200050E1200010EF3
:042460001200270837
:04FFFC0002EF8EF092
:020000040030CA
:080000008CFFF7FF9FFFFFFFDB
:01000900FFF7
:00000001FF
