:04000000EEEF35F0FA
:10677C001200919B1200C0951200010E1200050E22
:10678C001200928712008D511200070A87740E01B5
:10679C00C89512000E01928112000E019283120014
:1067AC000E0192851200929B928912000E01C885EF
:1067BC0012000E01928B928912002D6E2DC08DFE4F
:1067CC001200D3EC33F0010E1200D3EC33F0020EB6
:1067DC001200D3EC33F0010E1200D6EC33F0000EA5
:1067EC001200D9EC33F0050E1200DFEC33F00A0E78
:1067FC001200DFEC33F0090E12000E01C8B51200C6
:10680C00FCD7000EFBEC34F012002492000E236E29
:10681C000E0E12002490C7EC33F0040E12002492DA
:10682C00000E236E0E0E120092AD02D0010E12005D
:10683C00000E12002480D8801D34E3EC33F0050EDA
:10684C00120024801D501D24E3EC33F0030E1200C3
:10685C0004D003EC34F0A8EC35F024A21200F9D7E4
:10686C00456E810EE7EC34F04550E7EC34F0120045
:10687C002E6E2EC025F0266A2DC027F0286A120035
:10688C0094EC34F04FEC34F0ACEC37F059EC34F0D1
:10689C001200000E906F080E916F000E926F130E87
:1068AC008E6F919B1200620ED36F000ED56F000E8F
:1068BC00D76F060ED96F000ED86F120024A61200E7
:1068CC002DC01EF02EC01FF02FC020F030C021F0C4
:1068DC002496120032C02DF033C02EF034C02FF0AD
:1068EC0035C030F0000E8EEC36F0120091BB120069
:1068FC00000E906F080E916F000E926F130E8E6F3C
:10690C00918B120032C02DF033C02EF034C02FF01A
:10691C0035C030F0020E8EEC36F01200000E0E0177
:10692C00DC6F000EDD6F000EDE6F000EDF6F000EF1
:10693C00E06F000EE16F1200010E2D6E24B20AD032
:10694C0024941D68CDEC33F0C1EC33F0BFEC33F084
:10695C0023C02DF02D501200456E4550D8B404D0F4
:10696C00AF0E466E010E03D0AE0E466E000E2A6EB2
:10697C004650E7EC34F0120042C0D9FF43C0DAFFB6
:10698C00400EDF6E42C03DF043C03EF044C03FF0CD
:10699C0045C040F03C0ECBEC35F012002D502F02D0
:1069AC00F3CF31F0F4CF32F02D503002F3503226C9
:1069BC002E502F02F350322631C02DF032C02EF063
:1069CC001200426E000E446E000E436E000E436EBB
:1069DC0042C044F0430E3D6E3E6A000E406E020E05
:1069EC003F6E3C0ECBEC35F012003B6E010E3C6E54
:1069FC0024B20ED02482000E3C6E3B50D8B402D090
:106A0C00010E01D0020E226ED0EC33F02EEC34F0DD
:106A1C003C50120036C02DF037C02EF0000E306EF8
:106A2C00020E2F6E64EC34F0000E326E000E336EDC
:106A3C00000E346E000E356E70EC34F0040E120045
:106A4C0036C02DF037C02EF0000E306E010E2F6EBA
:106A5C0064EC34F0000E326E000E336E000E346EA9
:106A6C00000E356E70EC34F0020E120036C02DF0B4
:106A7C0037C02EF0000E306E020E2F6E64EC34F028
:106A8C00000E326E000E336E000E346E000E356E3C
:106A9C0070EC34F0020E120036C02DF037C02EF020
:106AAC00000E306E010E2F6E64EC34F0000E326E60
:106ABC00000E336E000E346E000E356E70EC34F03A
:106ACC00040E120014D050C037F051C038F052C030
:106ADC0039F053C03AF054C03BF04EC0F6FF4FC0F3
:106AEC00F7FF0800F5509CEC39F04E4A4F2A4EC087
:106AFC00F6FF4FC0F7FF0800F5500009D8B412009C
:106B0C00E2D720EE02F03650D9263750DA22DF5089
:106B1C00386E38C02DF02E6A36C0D9FF37C0DAFF78
:106B2C00DECF2FF0DDCF30F064EC34F0000E326E9F
:106B3C00000E336E000E346E000E356E70EC34F0B9
:106B4C00020E1200CDEC33F024A007D01AEC34F076
:106B5C000009D8B402D00F0E226E2250020D670E1F
:106B6C00F324F66E740EF420F76E01D80CD00500E9
:106B7C00FA6E0900F550FD6E0900F550FE6EF850E6
:106B8C00FF6EFA501200226E1200416E415029EC39
:106B9C0037F00009D8B4FAD73DC02DF03EC02EF026
:106BAC003FC02FF040C030F064EC34F0000E326E79
:106BBC00000E336E000E346E000E356E88EC34F021
:106BCC0007EC34F0A2EC34F0E806D8A41200FAD7A3
:106BDC00960EF66E670EF76E000EF86E00EE57F01E
:106BEC0010EE04F00900F5CFEEFFE550E150FAE1AC
:106BFC0004EE00F014EE00F0EE6AE550E150FCE11A
:106C0C00E250FAE100EE01F02C0EEE6AE806FDE12E
:106C1C00000EF86E000137EF38F0000E486E485049
:106C2C00B00FE7EC34F0000EE7EC34F0100EE7ECAC
:106C3C0034F04850466E476A070ED89046364736B1
:106C4C00E82EFBD7000E4624426E040E4720436EFE
:106C5C00000E456E800E446EC2EC34F0482A070ECE
:106C6C004864DDD712002490020E236E06D0EFECA0
:106C7C0033F01200F3EC33F0120011C036F012C0F6
:106C8C0037F020EE05F001D80AD00500FA6EDE5080
:106C9C00FD6EDE50FE6EF850FF6EFA501200396E2B
:106CAC003A6A3A50000AD8A4E5D73950020AD8B447
:106CBC00DED7010AD8B4DBD7DDD72D6E000E306ECF
:106CCC00000E316E000E326E000E336E2D50D8B4A5
:106CDC0004D0000E2F6E2E6804D0000E2F6E000E06
:106CEC002E6E000E3024D96E040E3120DA6E2EC0BA
:106CFC00DFFF010E3026000E3122322233223350B8
:106D0C00321005E1040E315CD8B01200DFD712004E
:106D1C00316E2D502E10D8B415D03150020DF350C9
:106D2C00010FD96EDA6A2DC0DEFF2EC0DDFF3150A7
:106D3C00020DF3500D0FD96EDA6A2FC0DEFF30C092
:106D4C00DDFF12003150020DF350010FD96EDA6ADB
:106D5C00860EDE6E670EDD6E3150020DF3500D0F98
:106D6C00D96EDA6ADE6ADD6A120024860AD0EFEC8C
:106D7C0033F01200DCEC33F0030E1200F3EC33F0C2
:106D8C0012000DC036F00EC037F001D80AD0050045
:106D9C00FA6E0150FD6E0250FE6EF850FF6EFA5006
:106DAC001200396E3A6A3A50000AD8A4E7D7395023
:106DBC00010AD8B4E3D7030AD8B4D9D7010AD8B496
:106DCC00D6D7070AD8B4D6D7D9D7C9EC33F01EC05A
:106DDC00D9FF1FC0DAFFDF6E1E4A1F2A2006D8A07B
:106DEC00210620502110D8B404D0D9EC33F0050E74
:106DFC001200248606D0FFEC33F01200FBEC33F0CB
:106E0C0012000DC036F00EC037F001D80AD00500C4
:106E1C00FA6E0150FD6E0250FE6EF850FF6EFA5085
:106E2C001200396E3A6A3A50000AD8A4E7D73950A2
:106E3C00010AD8B4E3D7030AD8B4DDD7010AD8B411
:106E4C00DAD7070ADBD72D6E010E2E6E24B43AD09A
:106E5C002DC01DF02492248424900E0E226E010E5F
:106E6C001C6EF40E1B6E2486860E016E670E026E6F
:106E7C00000E0D6E000E0E6E860E036E670E046E07
:106E8C00000E0F6E000E106E860E056E670E066EEF
:106E9C00000E116E000E126E860E076E670E086ED7
:106EAC00000E136E000E146E8A0E096E670E0A6EBB
:106EBC00000E156E000E166ECDEC33F07CEC34F03B
:106ECC00000E2E6E2E501200000E326E30AE06D01A
:106EDC002F6C301ED8B0302A010E326E2EAE06D07A
:106EEC002D6C2E1ED8B02E2A010E321A000E346EC6
:106EFC00000E336E2F503010D8B41CD0010E316EF2
:106F0C0004D0D8902F363036312A30AEFAD7D890FC
:106F1C00333634362F502D5C30502E58D8A005D037
:106F2C002F502D5E30502E5A3380D89030322F3265
:106F3C00312EEDD73250D8B404D0336C341ED8B0C7
:106F4C00342A33C02DF034C02EF01200000E866EA1
:106F5C00000E856E000E826E000E836E000E846E27
:106F6C00070E8B6E876888688968FE0E8A6E0F0123
:106F7C0021691C69F90E146F070E296F0C69000E3C
:106F8C00206F000E286F000E136F000E0B6F000E9B
:106F9C001B6F000E276F000E0A6F000E126F000E93
:106FAC001A6F000E1F6F0969116919691E69070EA6
:106FBC00266F0869106918691D690F0E256F0A0E76
:106FCC000E018B6F110EEB6F120EEC6F090E8A6FA8
:106FDC0012001AEC34F00009D8A40AD02DD0E7EC3A
:106FEC0033F01200EBEC33F01200F3EC33F0120040
:106FFC0013C036F014C037F020EE07F001D80AD0D9
:10700C000500FA6EDE50FD6EDE50FE6EF850FF6E1F
:10701C00FA501200396E3A6A3A50000AD8A4E5D7F1
:10702C003950010AD8B4E1D7030AD8B4D8D7010A29
:10703C00D8B4D8D7070AD9D724901EC0D9FF1FC0FF
:10704C00DAFF1E4A1F2ADF50E3EC33F02006D8A0EB
:10705C00210620502110D8A402D0060E1200030ED7
:10706C00120046EC34F02DEC39F0010E63EC36F0E6
:10707C00000E376EF30E386E7B0E396E7F0E3A6E45
:10708C003F0E3B6E000E3C6E000ED3EC38F013EC52
:10709C0036F0060E566E130E556EAE0EE82EFED75B
:1070AC00552EFCD7562EFAD7000E63EC36F01E0E7A
:1070BC002D6E1E0E3EEC34F0F30E4E6E7F0E4F6EA8
:1070CC0057C050F058C051F059C052F05AC053F04C
:1070DC00010E546E68EC35F013EC36F0060E566E5D
:1070EC00130E556EAE0EE82EFED7552EFCD7562E2F
:1070FC00FAD7BBD7366E2E04D8A426D02DC02FF0CD
:10710C00070E2F16010E306E2F2A02D0D890303673
:10711C002F2EFCD72D38E8461F0B316E326A070E26
:10712C00D89031363236E82EFBD7010E3124336E2F
:10713C00040E3220346E36503324D96E000E3420B7
:10714C00DA6E3050DF1212002DC02FF0070E2F1602
:10715C00010E306E2F2A02D0D89030362F2EFCD74D
:10716C003050FF0A316E2D38E8461F0B326E336AF1
:10717C00070ED89032363336E82EFBD7010E322468
:10718C00346E040E3320356E36503424D96E000E16
:10719C003520DA6E3150DF161200426E070E3A249B
:1071AC002D6E2E6A000E2E22000E306E080E2F6EE3
:1071BC006AEC37F02DC040F02EC041F0000E436E4B
:1071CC00000E446E3FD0000E456E36D045C03DF0EB
:1071DC00070E3D16D8B403D0D890433622D044C005
:1071EC002DF02E6A40C02FF041C030F0D4EC34F0BA
:1071FC002D5038243D6E2E5039203E6E45C03FF048
:10720C00D8903F32D8903F32D8903F323F503D26F5
:10721C00000E3E223DC0F6FF3EC0F7FF0800F5CF42
:10722C0043F043AE08D037C02DF03CC02EF0425096
:10723C00452480EC38F0452A3A50455CD8A0C6D796
:10724C00442A372A3B50445CD8B01200BCD7BEEC61
:10725C0033F0020E4A6E040E496EBA0EE82EFED7BB
:10726C00492EFCD74A2EFAD700D0000EB2EC34F0DF
:10727C00200EE7EC34F0000EE7EC34F0B00EE7EC47
:10728C0034F0C80EE7EC34F0000EE7EC34F0100EDE
:10729C00E7EC34F0400EE7EC34F0FF0E36EC34F053
:1072AC00A10EE7EC34F0A60EE7EC34F0A80EE7ECF8
:1072BC0034F03F0EE7EC34F0A40EE7EC34F0D30ED0
:1072CC00E7EC34F0000EE7EC34F0D50EE7EC34F0DC
:1072DC00F00EE7EC34F0D90EE7EC34F0220EE7ECCC
:1072EC0034F0DA0EE7EC34F0120EE7EC34F0DB0E8F
:1072FC00E7EC34F0200EE7EC34F08D0EE7EC34F0D4
:10730C00140EE7EC34F0010EB2EC34F0000E63EC2A
:10731C0036F013EC36F0000E266E000E256E000EC5
:10732C00286E000E276E010E296E1200456E000E9F
:10733C00466E000E476E000E486E000E496E79D0F8
:10734C00E00E45242D6E2E6AFF0E2E2238C02FF033
:10735C00306AD4EC34F046502D2647502E22D8906B
:10736C002D362E362D5039243C6E2E503A203D6E43
:10737C003CC0F6FF3DC0F7FF0900F5CF3EF0090019
:10738C00F5CF3FF03EC041F03FC042F0436A446A43
:10739C00000E4A6E000E4B6E000E4C6E000E4D6EC3
:1073AC0033D04AC03CF041C03DF042C03EF043C037
:1073BC003FF044C040F03C2A05D0D8903D363E36D4
:1073CC003F3640363C2EF9D73EAE0AD027504624E5
:1073DC002D6E3BC02EF025504A2480EC38F00ED098
:1073EC00275046242D6E3B50D8A402D0010E01D05C
:1073FC00000E2E6E25504A2480EC38F0010E4A26E1
:10740C00000E4B224C224D2237C03CF03D6A3E6AA6
:10741C003F6A3C504A5C3D504B583E504C583F5094
:10742C004D58D8A0BED7010E4626000E4722482242
:10743C00492238C03CF03D6A3E6A3F6A3C50465C8B
:10744C003D5047583E5048583F504958D8A078D7DF
:10745C0037502526000E2622120000166840684E72
:10746C0068DE6FD66D2068766DCE67D667DE67E610
:10747C0067EE67F667FE672A68726C000000000012
:10748C0000000000000000000000000000000000F0
:10749C001000100010001000100010000000100070
:1074AC000000000028002800280000000000000058
:1074BC000000000000000000240024007C002400D8
:1074CC0048007C00480048000000000038005400D0
:1074DC005000380014005400540038001000000014
:1074EC0020005400580030002800540014000800FC
:1074FC000000000010002800280010003400480094
:10750C0048003400000000001000100010000000C3
:10751C000000000000000000000000000800100047
:10752C002000200020002000200020001000080077
:10753C0020001000080008000800080008000800DF
:10754C00100020001000380010002800000000007F
:10755C0000000000000000000000000010001000FF
:10756C007C00100010000000000000000000000073
:10757C0000000000000000000000100010001000CF
:10758C0000000000000000000000380000000000B7
:10759C0000000000000000000000000000000000DF
:1075AC00000010000000000008000800100010008F
:1075BC0010001000200020000000000038004400E3
:1075CC004400540044004400440038000000000013
:1075DC0010003000500010001000100010001000BF
:1075EC0000000000380044004400040008001000B3
:1075FC0020007C000000000038004400040018004B
:10760C0004000400440038000000000008001800CA
:10761C002800280048007C0008000800000000003A
:10762C007C00400040007800040004004400380056
:10763C000000000038004400400078004400440082
:10764C0044003800000000007C000400080010001A
:10765C001000200020002000000000003800440032
:10766C00440038004400440044003800000000008E
:10767C0038004400440044003C000400440038003E
:10768C0000000000000000001000000000000000DE
:10769C0000001000000000000000000000001000BE
:1076AC00000000000000100010001000000000009E
:1076BC000C003000400030000C0000000000000006
:1076CC000000000000007C0000007C0000000000B6
:1076DC00000000000000000060001800040018000A
:1076EC0060000000000000003800440004000800A6
:1076FC0010001000000010000000000038004400D2
:10770C004C0054005C0040004000380000000000B9
:10771C00100028002800280028007C0044004400A9
:10772C00000000007800440044007800440044004D
:10773C004400780000000000380044004000400085
:10774C004000400044003800000000007000480079
:10775C004400440044004400480070000000000055
:10776C007C00400040007C004000400040007C0059
:10777C00000000007C004000400078004000400009
:10778C004000400000000000380044004000400071
:10779C005C00440044003800000000004400440039
:1077AC0044007C00440044004400440000000000FD
:1077BC0038001000100010001000100010003800ED
:1077CC000000000004000400040004000400040095
:1077DC0044003800000000004400480050006000E5
:1077EC0050004800480044000000000040004000E9
:1077FC00400040004000400040007C0000000000C1
:10780C0044006C006C0054004400440044004400EC
:10781C0000000000440064006400540054004C005C
:10782C004C004400000000003800440044004400B8
:10783C00440044004400380000000000780044007C
:10784C00440044007800400040004000000000006C
:10785C003800440044004400440044005400380004
:10786C000400000078004400440044007800480004
:10787C004800440000000000380044004000300084
:10788C000800040044003800000000007C001000D8
:10789C00100010001000100010001000000000007C
:1078AC0044004400440044004400440044003800B8
:1078BC000000000044004400440028002800280078
:1078CC00100010000000000044004400540054005C
:1078DC0054006C0028002800000000004400280020
:1078EC0028001000100028002800440000000000B0
:1078FC004400440028002800100010001000100064
:10790C00000000007C0004000800100010002000A3
:10791C0040007C0000000000180010001000100057
:10792C0010001000100010001000180020002000A3
:10793C0010001000100010000800080000000000EB
:10794C00300010001000100010001000100010008B
:10795C001000300010002800280044000000000037
:10796C00000000000000000000000000000000000B
:10797C0000000000000000000000FE0020001000CD
:10798C0000000000000000000000000000000000EB
:10799C0000000000380044003C0044004C0034005F
:1079AC000000000040004000580064004400440007
:1079BC006400580000000000000000003800440083
:1079CC0040004000440038000000000004000400A7
:1079DC0034004C00440044004C0034000000000013
:1079EC0000000000380044007C00400044003800D7
:1079FC00000000000C0010007C00100010001000B3
:107A0C0010001000000000000000000034004C00CA
:107A1C00440044004C003400040078004000400056
:107A2C00580064004400440044004400000000007E
:107A3C00100000007000100010001000100010006A
:107A4C00000000001000000070001000100010007A
:107A5C00100010001000E0004000400048005000F2
:107A6C00600050004800440000000000700010004E
:107A7C00100010001000100010001000000000009A
:107A8C0000000000780054005400540054005400CE
:107A9C000000000000000000580064004400440096
:107AAC0044004400000000000000000038004400C6
:107ABC0044004400440038000000000000000000B6
:107ACC00580064004400440064005800400040002A
:107ADC000000000034004C00440044004C00340012
:107AEC000400040000000000580064004000400046
:107AFC00400040000000000000000000380044007E
:107B0C003000080044003800000000002000200075
:107B1C007800200020002000200018000000000049
:107B2C000000000044004400440044004C003400B9
:107B3C000000000000000000440044002800280061
:107B4C002800100000000000000000005400540049
:107B5C0054006C0028002800000000000000000009
:107B6C004400280010001000280044000000000011
:107B7C000000000044004400280028001000100001
:107B8C0010006000000000007C00080010002000C5
:107B9C0040007C00000000001800100010001000D5
:107BAC002000200010001000100018001000100021
:107BBC001000100010001000100010001000100039
:107BCC003000100010001000080008001000100019
:107BDC001000300000000000000074004C00000099
:107BEC0000000000000000FFFFFFFFFFFFFFFFFF92
:107BFC00FFFFFFFFFFFFFFFFFFFFFFFFFFFFFFFF89
:107C0C00FFFFFFFFFFFFFFFFFFFFFFFFFFFFFC7FFB
:107C1C00FFFFFFFFFFFFFFFFFFFFFFFFFFFF000363
:107C2C00FFFFFFFFFFFFFFFFFFFFFFFFFFFC000059
:107C3C007FFFFFFFFFFFFFFFFFFFFFFFFFF00000D5
:107C4C007FFFFFFFFFFFFFFFFFFFFFFFFFC00000F5
:107C5C003FFFFFFFFFFFFFFFFFFFFFFFFF80000065
:107C6C001FFFFFFFFFFFFFFFFFFFFFFFFE000000F6
:107C7C001FFFFFFFFFFFFFFFFFFFFFFFFC000000E8
:107C8C000FFFFFFFFFFFFFFFFFFFFFFFF8000000EC
:107C9C000FFFFFFFFFFFFFFFFFFFFFFFF803800356
:107CAC0087FFFFFFFFFFFFFFFFFFFFFFF007C0078E
:107CBC00C3FFFFFFFFFFFFFFFFFFFFFFE007E00F2A
:107CCC00C3FFFFFFFFFFFFFFFFFFFFFFE00FE01F02
:107CDC00E1FFFFFFFFFFFFFFFFFFFFFFC01FF01FD4
:107CEC00E0FFFFFFFFFFFFFFFFFFFFFFC03FF83F7D
:107CFC00F0FFFFFFFFFFFFFFFFFFFFFF803FF87F5D
:107D0C00F87FFFFFFFFFFFFFFFFFFFFF803FFC7FC0
:107D1C00F83FFFFFFFFFFFFFFFFFFFFF801FFC3F50
:107D2C00FC3FFFFFFFFFFFFFFFFFFFFF801FFE1F5A
:107D3C00FE1FFFFFFFFFFFFFFFFFFFFF010FFF1FF6
:107D4C00FE1FFFFFFFFFFFFFFFFFFFFF0387FF0F7C
:107D5C00FF0FFFFFFFFFFFFFFFFFFFFF07C7FF87BF
:107D6C00FF87FFFFFFFFFFFFFFFFFFFF07C3FFC7FB
:107D7C00FF87FFFFFFFFFFFFFFFFFFFF0FE1FFC3C9
:107D8C00FFC3FFFFFFFFFFFFFFFFFFFF1FF1FFE13F
:107D9C00FFC3FFFFFFFFFFFFFFFFFFFF9FF0FFE1B0
:107DAC00FFE3FFFFFFFFFFFFFFFFFFFFBFF87FF0C9
:107DBC00FFF3FFFFFFFFFFFFFFFFFFFFFFF87FF861
:107DCC00FFF7FFFFFFFFFFFFFFFFFFFFFFF83FF88D
:107DDC007FFFFFFFFFFFFFFFFFFFFFFFFFF03FF8FD
:107DEC003FFFFFFFFFFFFFFFFFFFFFFFFFE01FF065
:107DFC003FFFFFFFFFFFFFFFFFFFFFFFFFC00FF085
:107E0C001FFFFFFFFFFFFFFFFFFFFFFFFFC00FE0A4
:107E1C000FFFFFFFFFFFFFFFFFFFFFFFFF8007C00C
:107E2C000FFFFFFFFFFFFFFFFFFFFFFFFF0003C080
:107E3C0007FFFFFFFFFFFFFFFFFFFFFFFF000380B8
:107E4C0003FFFFFFFFFFFFFFFFFFFFFFFE00000030
:107E5C0003FFFFFFFFFFFFFFFFFFFFFFFE00000020
:107E6C0001FFFFFFFFFFFFFFFFFFFFFFFF00000011
:107E7C0003FFFFFFFFFFFFFFFFFFFFFFFFC000003F
:107E8C0007FFFFFFFFFFFFFFFFFFFFFFFFE000000B
:107E9C001FFFFFFFFFFFFFFFFFFFFFFFFFF80000CB
:107EAC007FFFFFFFFFFFFFFFFFFFFFFFFFFF000351
:107EBC00FFFFFFFFFFFFFFFFFFFFFFFFFFFFF87F4D
:107ECC00FFFFFFFFFFFFFFFFFFFFFFFFFFFFFFFFB6
:107EDC00FFFFFFFFFFFFFFFFFFFFFFFFFFFFFFFFA6
:107EEC00FFFFFFFFFFFFFFFFFFFFFFFFFFFFFFFF96
:107EFC00FFFFFFFFFFFFFFFFFFFFFFFFFFFFFFFF86
:107F0C00FFFFFFFFFFFFFFFFFFFFFFFFFFFFFFFF75
:107F1C00FFFFFFFFFFFFFFFFFF8FE1FFFFFFFFFFF3
:107F2C00FFFFFFFFFFFFFFFFFF87E1FFFFFFFFFFEB
:107F3C00FFFFFFFFFFFFFFFFFF83C1CF00C01E014C
:107F4C00F00CF88C01FFFFFFFF03C1CC00C00C004C
:107F5C00C00CF88C00FFFFFFFF0188CC3FCFCC7822
:107F6C0047FCF88CFCFFFFFFFF1108CC7FCFCCFC4B
:107F7C004FFC008CFCFFFFFFFF1818CC7FC00CFCE3
:107F8C004FFC008C00FFFFFFFF1818CC7FC00CFCCF
:107F9C004FFCF88C00FFFFFFFF1C38CC004F8C000F
:107FAC00400CF88CFFFFFFFFFF3C78CC00CFCC00DF
:107FBC00C00CF88CFFFFFFFFFFFFFFFFFFFFFFFF71
:107FCC00FF9FFFFFFFFFFFFFFFFFFFFFFFFFFFFF15
:107FDC00FFFFFFFFFFFFFFFFFFFFFFFFFFFFFFFFA5
:107FEC00FFFFFFFFFFFFFF486F6C61204D756E6454
:037FFC006F000013
:020000040030CA
:0C000000ECFFFFFF9FFFFFFFFFFFFFFF73
:00000001FF
