:04000000CFEF28F026
:1050E0001200400E1200800E1200016E01C0C1FFBE
:1050F000000EC26E8F0EC06E1200C5809EA683EF9A
:1051000028F085EF28F07EEF28F09E961200C584E7
:105110009EA68DEF28F08FEF28F088EF28F09E965E
:105120001200016E01C0C9FF9EA699EF28F09BEF07
:1051300028F094EF28F09E96C5501200000E016EE4
:10514000040E026E000E046E000E036E040E066E58
:10515000000E056E83EC2EF01200026E7DEC28F03E
:10516000780E91EC28F0000E91EC28F0025091ECB2
:1051700028F087EC28F0120009500B02F3CF0DF055
:10518000F4CF0EF009500C02F3500E260A500B0219
:10519000F3500E260DC009F00EC00AF01200BE0E2C
:1051A000F66E670EF76E000EF86E04EE00F014EE69
:1051B00000F00900F5CFEEFFE550E150FAE1E250D2
:1051C000F8E100EE60F0410EEE6AE806FDE15F6A8C
:1051D0005E6A000EF86E0001E8EF2DF0016E93821A
:1051E000938001C0C7FF280EC66E000EC56E800EEC
:1051F0000118D8A4FEEF28F000EF29F004EF29F001
:10520000770EC86E0EEF29F00150D8A40AEF29F0EE
:105210000CEF29F00EEF29F01D0EC86E1200000EE3
:10522000106E000E0F6E20EF29F00EC001F0026A22
:105230000CC003F00DC004F02BEC2CF00F4A102A28
:105240000F500A24D96E10500B20DA6EDF500E6E0C
:105250000E50D8A42EEF29F030EF29F015EF29F0E9
:105260001200036E0D0E036438EF29F03AEF29F0B7
:1052700040EF29F0000E026E000E016E53EF29F090
:10528000000EC26E0344E846FC0BC26EC280C282AE
:10529000C2B24DEF29F04FEF29F048EF29F0C3CF0C
:1052A00001F0C4CF02F0120001C003F002C004F00C
:1052B0005CEF29F0014A022A01C0F6FF02C0F7FFA5
:1052C000F86A070EF76403D00800F55005D0F6CF52
:1052D000E9FFF7CFEAFFEF500009D8A472EF29F0F9
:1052E00074EF29F05AEF29F00350015C016E04506D
:1052F0000258026E12005A0E0001A16F000EA26F3A
:1053000056C0A3F057C0A4F0000EA66F000EA56F04
:10531000000EA86F000EA76FA30E4E6E000E4F6E0C
:1053200058C050F059C051F0A10E526E000E536E8D
:10533000A4EC29F00001A5515624D96EA65157209E
:10534000DA6E000EDF6E120050C054F051C055F0FE
:10535000000E0001686F000E676FC2EF29F04EC0AB
:105360003CF04FC03DF0540E3E6E000E3F6E52C0FA
:1053700040F053C041F03EEC2FF03C500001672755
:105380003D50682354C0F6FF55C0F7FF0800F550A4
:105390000009D8A4CEEF29F0D0EF29F0AFEF29F023
:1053A00067C04EF068C04FF0120001C060F002C04C
:1053B00061F001C0F6FF02C0F7FF0800F5CF62F010
:1053C000010E0124036E000E0220046E03C0F6FFDE
:1053D00004C0F7FF0800F5CF63F0020E0124036E4E
:1053E000000E0220046E03C0F6FF04C0F7FF0800A1
:1053F000F5CF64F0030E0124036E000E0220046E4C
:1054000003C0F6FF04C0F7FF0800F5CF65F0000EFB
:105410000001666F12001350155C1650800A1A6E58
:105420001450800A1A58D8B018EF2AF01AEF2AF050
:1054300036EF2AF013C01BF014C01CF015C013F097
:1054400016C014F01BC015F01CC016F036EF2AF081
:1054500013C009F014C00AF017C00BF018C00CF00C
:1054600019C00DF007EC30F0134A142A1350155CE4
:105470001650800A1A6E1450800A1A58D8B043EF9A
:105480002AF045EF2AF028EF2AF012001350155C9D
:105490001650800A1A6E1450800A1A58D8B053EF6A
:1054A0002AF055EF2AF071EF2AF013C01BF014C058
:1054B0001CF015C013F016C014F01BC015F01CC072
:1054C00016F071EF2AF017C009F018C00AF013C0E7
:1054D0000BF014C00CF019C00DF007EC30F0134ABB
:1054E000142A1350155C1650800A1A6E1450800A44
:1054F0001A58D8B07EEF2AF080EF2AF063EF2AF036
:1055000012001DC013F01EC014F021C015F022C0FF
:1055100016F01FC017F020C018F025C019F00BECD2
:105520002AF01DC013F01EC014F021C015F022C0D7
:1055300016F023C017F024C018F025C019F00BECAA
:105540002AF01FC013F020C014F023C015F024C0AF
:1055500016F01DC017F01EC018F025C019F046EC5B
:105560002AF01FC013F020C014F023C015F024C08F
:1055700016F021C017F022C018F025C019F046EC33
:105580002AF01200000E036E210EADEC28F0000E82
:10559000ADEC28F07F0EADEC28F0220EADEC28F03B
:1055A000000EADEC28F0070EADEC28F0000E056EF5
:1055B000000E046E7DEC28F0780E91EC28F0400E81
:1055C00091EC28F0000E036E000E0424D96E040E38
:1055D0000520DA6EDF5091EC28F0044A052A032AF0
:1055E0000F0E0364F6EF2AF0F8EF2AF0E4EF2AF04A
:1055F0000406D8A0050687EC28F0044A052A040E04
:10560000055CD8A006EF2BF008EF2BF0DAEF2AF0BC
:105610001200070E0E6E170E0D6E6A0EE82EFED7E4
:105620000D2EFCD70E2EFAD700D0AE0EADEC28F022
:10563000D50EADEC28F0800EADEC28F0A80EADEC48
:1056400028F03F0EADEC28F0D30EADEC28F0000EA4
:10565000ADEC28F0400EADEC28F08D0EADEC28F04E
:10566000140EADEC28F0200EADEC28F0000EADECE1
:1056700028F0A10EADEC28F0C80EADEC28F0DA0E43
:10568000ADEC28F0120EADEC28F0810EADEC28F058
:10569000CF0EADEC28F0D90EADEC28F0F10EADEC4C
:1056A00028F0DB0EADEC28F0400EADEC28F0A40E97
:1056B000ADEC28F0A60EADEC28F02E0EADEC28F0E7
:1056C000AF0EADEC28F09EEC28F0C2EC2AF01200F0
:1056D0005EA06DEF2BF06FEF2BF079EF2BF013C086
:1056E0000AF014C00BF011C00CF012C00DF00FEC5A
:1056F00029F016BE7EEF2BF080EF2BF086EF2BF01B
:1057000015C01AF016C01BF08AEF2BF0000E1B6EAE
:10571000000E1A6E000E196E000E186E9CEF2BF024
:10572000000E026E200E016E11C003F012C004F0D4
:105730002BEC2CF0184A192A1A50185C1950800AC0
:10574000176E1B50800A1758D8A0A9EF2BF0ABEFAB
:105750002BF090EF2BF05EB0B0EF2BF0B2EF2BF010
:10576000BCEF2BF013C00AF014C00BF011C00CF00A
:1057700012C00DF00FEC29F013C001F014C002F0BC
:1057800054EC29F01A500124116E1B500220126EA5
:105790001200000E066E04BED2EF2BF0D0EF2BF0FD
:1057A000D8EF2BF0036C041ED8B0042A010E066E4D
:1057B00002BEDFEF2BF0DDEF2BF0E5EF2BF0016CFD
:1057C000021ED8B0022A010E061A000E086E000E44
:1057D000076E03500410D8B4F0EF2BF0F2EF2BF06B
:1057E0001AEF2CF0010E056EFAEF2BF0D89003366D
:1057F0000436052A04AEFFEF2BF001EF2CF0F6EF94
:105800002BF0D890073608360350015C045002583C
:10581000D8A00DEF2CF00FEF2CF014EF2CF003506C
:10582000015E0450025A0780D89004320332052EDC
:1058300001EF2CF00650D8B420EF2CF022EF2CF022
:1058400026EF2CF0076C081ED8B0082A07C001F01C
:1058500008C002F0120003500410D8B432EF2CF04C
:1058600034EF2CF03DEF2CF003500410D8A43BEFA4
:105870002CF03DEF2CF042EF2CF0015070EC28F0B2
:105880008FEF2CF020EE04F00350D9260450DA22DA
:10589000DE50DE10D8B44FEF2CF051EF2CF06CEF4F
:1058A0002CF020EE04F00350D9260450DA2210EE3A
:1058B00002F00350E1260450E222DE50E65CE6509E
:1058C000800A096EDE50800A0958D8B06AEF2CF0C1
:1058D0006CEF2CF08FEF2CF020EE02F00350D92665
:1058E0000450DA22DECF05F0DDCF06F003C0D9FF89
:1058F00004C0DAFFDECF07F0DDCF08F00550072443
:10590000D96E06500820DA6E01C0DFFF20EE02F0EB
:105910000350D9260450DA22DE2A000EDD221200BE
:1059200009500A100B100C100D100E100F10101053
:10593000D8B49DEF2CF09FEF2CF0E7EF2CF0010E88
:10594000116EADEF2CF0D89009360A360B360C36B6
:105950000D360E360F361036112A10AEB2EF2CF07F
:10596000B4EF2CF0A3EF2CF00950015C0A50025860
:105970000B5003580C5004580D5005580E50065843
:105980000F50075810500858D8A0C9EF2CF0CBEF93
:105990002CF0DBEF2CF00950015E0A50025A0B503C
:1059A000035A0C50045A0D50055A0E50065A0F5007
:1059B000075A1050085AD89010320F320E320D325A
:1059C0000C320B320A320932112EB4EF2CF001C026
:1059D00001F002C002F003C003F004C004F005C0EF
:1059E00005F006C006F007C007F008C008F0120076
:1059F00032C001F033C002F054EC29F00150376E90
:105A0000FE0E2E182F10D8A408EF2DF00AEF2DF05F
:105A100019EF2DF0375000016203F3CF34F0F4CFCB
:105A200035F0345080082E6E3550D8A0E82A000892
:105A30002F6E2E282F10D8A420EF2DF022EF2DF05E
:105A40003BEF2DF0375000016203F3CF34F0F4CF79
:105A500035F034508008016E3550D8A0E82A00088F
:105A6000026E000E046E020E036EC9EC2BF001C034
:105A70002EF002C02FF0000E366E66EF2DF036507D
:105A800000016203F3CF34F0F4CF35F02E5034240C
:105A9000136E2F503520146E30C015F031C016F043
:105AA00032C0F6FF33C0F7FFF86A070EF76403D081
:105AB0000800F55005D0F6CFE9FFF7CFEAFFEF5029
:105AC000176EEDEC31F0324A332A362A3750365C05
:105AD000D8A06DEF2DF06FEF2DF03FEF2DF01200FD
:105AE00020EE11F0070EDE6AE806FDE209500A100A
:105AF0000B100C100D100E100F101010D8B483EFF7
:105B00002DF085EF2DF0D7EF2DF0010E196E93EFEC
:105B10002DF0D89009360A360B360C360D360E3677
:105B20000F361036192A10AE98EF2DF09AEF2DF09F
:105B300089EF2DF0D89011361236133614361536FB
:105B40001636173618360950015C0A5002580B50A9
:105B500003580C5004580D5005580E5006580F505D
:105B6000075810500858D8A0B8EF2DF0BAEF2DF014
:105B7000CBEF2DF00950015E0A50025A0B50035A28
:105B80000C50045A0D50055A0E50065A0F50075A21
:105B90001050085A1180D89010320F320E320D3248
:105BA0000C320B320A320932192E9AEF2DF011C045
:105BB00001F012C002F013C003F014C004F015C0CD
:105BC00005F016C006F017C007F018C008F0120064
:105BD0000E0E75EC28F0959E8C9E000EEEEC28F0D3
:105BE00009EC2BF0A30E016E770E026ED5EC29F0B6
:105BF000000E2F6E1E0E2E6E000E316E000E306ED9
:105C0000E60E326E7F0E336EF8EC2CF0000E1E6E38
:105C1000060E1D6E000E206E140E1F6E000E226EFC
:105C2000790E216E000E246E3F0E236E010E256E3E
:105C300081EC2AF0C2EC2AF0000E31EC29F001C010
:105C40005CF002C05DF08D0E566E000E576EFA0EBF
:105C5000586E7F0E596E5CC05AF05DC05BF07BECF5
:105C600029F0BF0E016E6B0E026ED5EC29F0000E0E
:105C70002F6E1E0E2E6E000E316E1A0E306E8D0EB1
:105C8000326E000E336EF8EC2CF05DBE51EF2EF04C
:105C9000850E5C5C030E5D58D8A051EF2EF053EFDB
:105CA0002EF06AEF2EF08C8E970E016E7D0E026E36
:105CB000D5EC29F0000E2F6E1E0E2E6E000E316EEA
:105CC000320E306EDC0E326E7F0E336EF8EC2CF03E
:105CD0001AEF2EF08C9E970E016E7D0E026ED5ECA3
:105CE00029F0000E2F6E1E0E2E6E000E316E320E3B
:105CF000306EF00E326E7F0E336EF8EC2CF01AEF31
:105D00002EF000EF00F001C00BF002C00CF00550C7
:105D10000610D8A48EEF2EF090EF2EF092EF2EF01A
:105D20003DEF2FF00BC0D9FF0CC0DAFF03C0DFFF3F
:105D300005500B24076E06500C20086EFF0E07243A
:105D4000D96EFF0E0820DA6E03C0DFFF065007E1B0
:105D5000030E055CD8B0AFEF2EF0B1EF2EF0B3EF2D
:105D60002EF03DEF2FF020EE01F00B50D9260C5015
:105D7000DA2203C0DFFF20EE02F00B50D9260C50D0
:105D8000DA2203C0DFFF05500B24076E06500C20FB
:105D9000086EFE0E0724D96EFF0E0820DA6E03C0CF
:105DA000DFFF05500B24076E06500C20086EFD0E19
:105DB0000724D96EFF0E0820DA6E03C0DFFF0650FD
:105DC00007E1070E055CD8B0E8EF2EF0EAEF2EF001
:105DD000ECEF2EF03DEF2FF020EE03F00B50D92624
:105DE0000C50DA2203C0DFFF05500B24076E06506B
:105DF0000C20086EFC0E0724D96EFF0E0820DA6E08
:105E000003C0DFFF065007E1090E055CD8B00BEFB9
:105E10002FF00DEF2FF00FEF2FF03DEF2FF00BC015
:105E200007F00CC008F0071E081E074A082A030ED8
:105E30000714096E0A6A09500B260A500C220950F1
:105E4000055E0A50065AFC0E0516FF0E061634EFC4
:105E50002FF00BC0D9FF0CC0DAFF03C0DFFF05062F
:105E6000D8A006060B4A0C2A05500610D8A43BEF12
:105E70002FF03DEF2FF029EF2FF012003EC0D9FF99
:105E80003FC0DAFFDECFF6FFDDCFF7FF0800F550A9
:105E9000250AD8A44EEF2FF050EF2FF0EBEF2FF0A4
:105EA0003EC0D9FF3FC0DAFFDE2A000EDD22000E21
:105EB00000016A6F000E696F69C05EF06AC05FF032
:105EC0006B696C693EC0D9FF3FC0DAFFDECFF6FFD9
:105ED000DDCFF7FF0800F550750AD8A472EF2FF058
:105EE00074EF2FF0B5EF2FF03EC0D9FF3FC0DAFFBF
:105EF000DE2A000EDD2240C0D9FF41C0DAFFDFCF2D
:105F000042F0020EDE26DFCF43F0000EDD2242C05B
:105F1000D9FF43C0DAFFDECF44F0DDCF45F044C007
:105F200046F045C047F0486A496A4A6A4B6A4C6A7B
:105F30004D6A3CC01CF03DC01DF046C01EF047C07D
:105F40001FF048C020F049C021F04AC022F04BC0E9
:105F500023F04CC024F04DC025F0EDEC30F01CC017
:105F60003CF01DC03DF006EF30F03EC0D9FF3FC011
:105F7000DAFFDECFF6FFDDCFF7FF0800F550250A88
:105F8000D8A4C5EF2FF0C7EF2FF0DEEF2FF03EC003
:105F9000D9FF3FC0DAFFDE2A000EDD22000E026EBE
:105FA000250E016E3CC003F03DC004F02BEC2CF03C
:105FB000000E3D6E010E3C6E06EF30F03EC0D9FF84
:105FC0003FC0DAFFDE2A000EDD22000E3D6E000E1D
:105FD0003C6E06EF30F03EC0D9FF3FC0DAFFDECFA7
:105FE000F6FFDDCFF7FF0800F550016E026A3CC0F6
:105FF00003F03DC004F02BEC2CF03EC0D9FF3FC0B5
:10600000DAFFDE2A000EDD22D8EF2FF012000ABEE2
:106010000CEF30F00EEF30F0ECEF30F073EC28F0D6
:106020000E6E0F6A0E50095C0A50800A106E0F50F7
:10603000800A1058D8B01FEF30F021EF30F0ECEFAD
:1060400030F00CBE26EF30F028EF30F0ECEF30F0FF
:1060500071EC28F00E6E0F6A0E500B5C0C50800A2B
:10606000106E0F50800A1058D8A039EF30F03BEF77
:1060700030F0D3EF30F0ECEF30F00BC00EF0070E45
:106080000E16010E0F6E0E2A48EF30F0D8900F3624
:106090000E2E46EF30F00BC001F00CC002F0000EE7
:1060A000046E080E036EC9EC2BF0070ED890013673
:1060B0000236E82E56EF30F0000E106E040E116E10
:1060C000015010260250112209501024D96E0A5096
:1060D0001120DA6E0F50DF12ECEF30F00BC00EF033
:1060E000070E0E16010E0F6E0E2A79EF30F0D890C3
:1060F0000F360E2E77EF30F00F50FF0A106E0BC0E8
:1061000001F00CC002F0000E046E080E036EC9EC24
:106110002BF0070ED89001360236E82E8AEF30F0C9
:10612000000E116E040E126E015011260250122242
:1061300009501124D96E0A501220DA6E1050DF1661
:10614000ECEF30F00BC00EF0070E0E16010E0F6EC6
:106150000E2AADEF30F0D8900F360E2EABEF30F0A8
:106160000BC001F00CC002F0000E046E080E036EAE
:10617000C9EC2BF0070ED89001360236E82EBBEFA3
:1061800030F0000E106E040E116E015010260250F9
:10619000112209501024D96E0A501120DA6E0F50C6
:1061A000DF1AECEF30F00D500E6E0F6A0F50000A40
:1061B000D8B4DDEF30F0ECEF30F00E50000AD8B478
:1061C0006EEF30F0010AD8B43DEF30F0030AD8B4D6
:1061D000A2EF30F0ECEF30F0120000016CBFF3EFF3
:1061E00030F0F5EF30F0F6EF30F05E926CBF03EF79
:1061F00031F06C5106E16B05D8B001EF31F003EFDF
:1062000031F009EF31F0000E2F6E010E2E6E0DEF02
:1062100031F06BC02EF06CC02FF069C030F06AC056
:1062200031F01EC032F01FC033F020C034F021C066
:1062300035F022C036F023C037F024C038F025C036
:1062400039F0000E3B6E1F0E3A6E000E8C6F9FEF02
:1062500031F03A06D8A03B066D0E3A24D96E000EF6
:106260003B20DA6E32C001F033C002F034C003F0DC
:1062700035C004F036C005F037C006F038C007F06E
:1062800039C008F00A0E096E000E0A6E000E0B6E81
:10629000000E0C6E000E0D6E000E0E6E000E0F6ED8
:1062A000000E106E90EC2CF001C026F002C027F01A
:1062B00003C028F004C029F005C02AF006C02BF066
:1062C00007C02CF008C02DF02650300FDF6E2E06D0
:1062D000D8A02F063006D8A0310632C001F033C056
:1062E00002F034C003F035C004F036C005F037C00A
:1062F00006F038C007F039C008F00A0E096E000E2B
:106300000A6E000E0B6E000E0C6E000E0D6E000E6F
:106310000E6E000E0F6E000E106E70EC2DF001C0B0
:1063200032F002C033F003C034F004C035F005C0D1
:1063300036F006C037F007C038F008C039F03A50E0
:106340003B10D8B4A6EF31F0A8EF31F0D8EF31F020
:1063500032503310341035103610371038103910D1
:10636000D8A4B5EF31F0B7EF31F029EF31F02FBEFF
:10637000C4EF31F02F5006E12E04D8B0C2EF31F057
:10638000C4EF31F029EF31F031BECFEF31F03150B1
:1063900008E13004D8A0CFEF31F0D1EF31F0D8EFE1
:1063A00031F05EB2D6EF31F0D8EF31F029EF31F0B5
:1063B0001CC011F01DC012F06D0E3A24136E000EB9
:1063C0003B20146E30C015F031C016F068EC2BF095
:1063D00011C01CF012C01DF01200000E2A6E000E3B
:1063E000296E000E2C6E000E2B6E000E1E6E000E1F
:1063F0001D6E63C018F0070E1816D8A402EF32F015
:1064000004EF32F004EF33F062C009F00A6A000EC4
:10641000046E080E036E63C001F0026AC9EC2BF033
:1064200001C00BF002C00CF0BCEC28F009C01BF05E
:106430000AC01CF000016451175C096E0A6AD8A0FA
:106440000A061BC00BF01CC00CF0BCEC28F0040EBC
:106450000924236E000E0A20246E000E2A6E000E00
:10646000296EEEEF32F0000E2C6E000E2B6EDDEF7B
:1064700032F062C009F00A6A29C00BF02AC00CF0A1
:10648000BCEC28F060C018F061C019F00950182663
:106490000A50192223501826245019222B5018264E
:1064A0002C50192218C0F6FF19C0F7FF0800F5504C
:1064B0001D6E1E6A000E2D6E2DC018F0010E196E95
:1064C000000E1A6E182A68EF32F0D89019361A3674
:1064D000182E65EF32F01D5019161E501A1619505D
:1064E0001A10D8B476EF32F078EF32F0C7EF32F00E
:1064F00000016651D8A47FEF32F081EF32F0A4EFB3
:1065000032F02B501324096E2C5014200A6E2D509B
:1065100029C018F02AC019F0D89018361936D8902A
:1065200018361936D890183619361826000E192242
:10653000155018240B6E165019200C6E010E0D6E9E
:1065400007EC30F0D2EF32F02B501324096E2C50B0
:1065500014200A6E2D5029C018F02AC019F0D890C6
:1065600018361936D89018361936D8901836193684
:106570001826000E1922155018240B6E16501920DB
:106580000C6E000E0D6E07EC30F0D2EF32F0000111
:106590006651D8A4CEEF32F0D0EF32F081EF32F076
:1065A000A4EF32F02D2A070E2D64D9EF32F0DBEF85
:1065B00032F05CEF32F02B4A2C2A00016251186E47
:1065C000196A18502B5C19502C58D8A0EAEF32F0F9
:1065D000ECEF32F039EF32F0294A2A2A63C001F099
:1065E000026A000E046E080E036EC9EC2BF0015017
:1065F000295C02502A58D8A000EF33F002EF33F0A4
:1066000033EF32F0DEEF33F000016451175C096EB6
:106610000A6AD8A00A06000E046E080E036E6251C4
:106620006303F3CF01F0F4CF02F0C9EC2BF001C00B
:106630000BF002C00CF0BCEC28F0040E0924236E11
:10664000000E0A20246E235000016025186E24508D
:106650006121196E18C0F6FF19C0F7FF0800F55048
:106660001F6E206A000E226E070E216E000E266E2F
:10667000000E256ECCEF33F0000E286E000E276E54
:10668000B7EF33F021C018F0010E196E000E1A6E2C
:10669000182A4EEF33F0D89019361A36182E4BEFD1
:1066A00033F01F50191620501A1619501A10D8B46A
:1066B0005CEF33F05EEF33F08BEF33F000016651A7
:1066C000D8A465EF33F067EF33F079EF33F025505E
:1066D0001324096E265014200A6E275015240B6EC1
:1066E000285016200C6E010E0D6E07EC30F096EF60
:1066F00033F025501324096E265014200A6E2750BB
:1067000015240B6E285016200C6E000E0D6E07EC33
:1067100030F096EF33F000016651D8A492EF33F0D9
:1067200094EF33F067EF33F079EF33F02106D8A020
:10673000220622BEA0EF33F09EEF33F0B5EF33F028
:10674000000E226E070E216E234A242A23500001D8
:106750006025186E24506121196E18C0F6FF19C00B
:10676000F7FF0800F5501F6E206A274A282A00010B
:106770006351186E196A1850275C2850800A1A6EE7
:106780001950800A1A58D8A0C8EF33F0CAEF33F076
:1067900042EF33F0254A262A6251186E196A1850C2
:1067A000255C2650800A1A6E1950800A1A58D8A003
:1067B000DCEF33F0DEEF33F03CEF33F0120000009B
:1067C00000000000000000000000000000000000C9
:1067D00000000000000000000000000000000000B9
:1067E00000000000000000000000000000000000A9
:1067F0000000000000000000000000000000000099
:106800000000000000000000000000000000000088
:106810000000000000000000000000000000000078
:106820000000000000000000000000000000000068
:106830000000000000000000000000000000000058
:106840000000000000000000FCFCFC0C0C0C0C0C18
:106850000C0000C0C0C080C0C0C0C0800080C0C0EC
:10686000C0C08000000000FEFEFE80C0C0C0C0C0EE
:1068700080000000008080C0C0C0C0C08000000058
:10688000008080C0C0C0C080FEFEFE00000080808E
:10689000C0C0C0C080FEFEFE0000008080C0C0C03E
:1068A000C0C080000000008080C0C0C0C080FEFE6C
:1068B000FE000000000000000000000000000000DA
:1068C0000000000000000000FFFFFF83838383833C
:1068D000800000FFFFFF01000001FFFFFF0100003B
:1068E00001FFFFFF000000FFFFFFC1808080C1FFAC
:1068F000FF3E00003EFFFFCD8C8C8C8FCFCF000081
:106900003EFFFFC1808080C1FFFFFF00003EFFFF10
:10691000C1808080C1FFFFFF00003EFFFFCD8C8C57
:106920008C8FCFCF00003EFFFFC1808080C1FFFF72
:10693000FF00000000000000000000000000000058
:10694000000000000000000001010101010101013F
:106950000100000101010000000001010100000030
:10696000000101010000000101010001010101001D
:106970000000000000000001010101010100000011
:1069800000000101010101000101010000000001FE
:1069900001010101000101010000000000010101ED
:1069A00001010100000000000101010101000101DD
:1069B00001000000000000000000000000000000D6
:1069C00000000000000000FCFCFC000000000000D3
:1069D000008080C0C0C0C0C080000000FEFEFE80FD
:1069E000C0C0C0C0C080000000008080C0C0C0C067
:1069F000C08080000000C0C0C080C0C0C0000000D7
:106A00008080C0C0C0C0C0800000C0C0F8F8F8C01E
:106A1000C0C000008080C0C0C0C0C0808000000036
:106A2000C0C0C080C0C0C040C0C0800000000080A6
:106A3000C0C0400000000000000000000000000096
:106A400000000000000000FFFFFF808080808000C9
:106A500070F9FD9C8C8CCCFFFFFF0000FFFFFFC195
:106A6000808080C1FFFF3E00003EFFFFC18080802C
:106A7000C1FFFF3E0000FFFFFF03010101000070A6
:106A8000F9FD9C8C8CCCFFFFFF000000FFFFFF8016
:106A90008080003EFFFFC1808080C1FFFF3E00007C
:106AA000FFFFFF0301010100030F3FFEF8C0FCFFE1
:106AB0001F030000000000000000000000000000B4
:106AC00000000000000000010101010101010100BE
:106AD00000000101010100010101000001010100AC
:106AE000010101010000000000000000010101019E
:106AF0000100000000000101010000000000000092
:106B0000000101010100010101000000000101017B
:106B1000010100000000010101010100000000006E
:106B200001010100000000000000181D1F0F0300FC
:106B30000000000000000000000000000000000055
:106B40000000000000000000000000000000000045
:106B50000000000000000000000000000000000035
:106B60000000000000000000000000000000000025
:106B70000000000000000000000000000000000015
:106B80000000000000000000000000000000000005
:106B900000000000000000000000000000000000F5
:106BA00000000000000000000000000000000000E5
:106BB00000000000000000000000000000000010C5
:106BC00010205F0000000000000000000000000036
:106BD00000000000000000000000000000000000B5
:106BE00000000000000000F8FCFCFCF800000000C1
:106BF000000000000000000073737300000000003C
:106C0000000000000000001E3E3E0000003E3E1E50
:106C10000000000000000000000000000000000074
:106C200000000000303030FEFE30303030FEFE30EC
:106C3000303000000C0C0C7F7F0C0C0C0C7F7F0C98
:106C40000C0C00000000F0F898FE9898FE98981838
:106C50000000000000001819197F19197F191F0F73
:106C60000000000000000038383880C0E0703800B4
:106C7000000000000000001C0E0703011C1C1C008B
:106C800000000000000038FCC4C4FC380000008094
:106C90000000000000001E3F2121333F1E1E37234D
:106CA00000000000000000203C3C1C000000000030
:106CB00000000000000000000000000000000000D4
:106CC00000000000000000C0E0F0381C0C040400CC
:106CD0000000000000000003070F1C3830202000D7
:106CE0000000000000000004040C1C38F0E0C000AC
:106CF00000000000000000202030381C0F070300B7
:106D00000000000000808890E0E0FCFCE0E090885B
:106D1000800000000001110907073F3F0707091124
:106D200001000000000000808080F0F08080800082
:106D3000000000000000000101010F0F010101002F
:106D40000000000000000000000000000000000043
:106D500000000000000000407878380000000000CB
:106D60000000000000008080808080808080808023
:106D70000000000000000101010101010101010109
:106D80000000000000000000000000000000000003
:106D9000000000000000000038383800000000004B
:106DA00000000000000000000000000080C0E07053
:106DB000381C000000002030381C0E0703010000C2
:106DC000000000000000F8FCFC0484E474FCFCF803
:106DD0000000000000001F3F3F2E2721203F3F1FE3
:106DE000000000000000606060F0FCFC000000009B
:106DF0000000000000002020203F3F3F2020200016
:106E0000000000000000181C1C040484CCFC783036
:106E100000000000000030383C2E2723213838388D
:106E2000000000000000181C1C848484CC7C783096
:106E3000000000000000183838212121333E1E0CCC
:106E400000000000000080C0603018FCFCFC000066
:106E500000000000000003030323233F3F3F2323E0
:106E6000000000000000FCFCFC8484848484040492
:106E7000000000000000193939212121333F1F0E85
:106E8000000000000000E0F0F89C8C848484800006
:106E90000000000000001F3F3F212121213F3F1F34
:106EA0000000000000003C3C3C0404040484FCFCA2
:106EB0007C0000000000000000383C3E0703010099
:106EC000000000000000787CFCC4C48484FC7C7852
:106ED0000000000000001E3E3F212123233F3E1EF4
:106EE000000000000000F8FCFC84848484FCFCF8B2
:106EF000000000000000000121212131391F0F078F
:106F00000000000000000000007070700000000031
:106F10000000000000000000000E0E0E0000000047
:106F20000000000000000000007070700000000011
:106F30000000000000000000101E1E0E00000000F7
:106F400000000000000080C0E070381C0E06020047
:106F50000000000000000103070E1C3870604000B4
:106F60000000000000606060606060606060606001
:106F7000600000000006060606060606060606066F
:106F800006000000000002060E1C3870E0C0800001
:106F9000000000000000406070381C0E0703010074
:106FA000000000000000181C0C0E0686CEFC7C3889
:106FB0000000000000000000000073737300000078
:106FC000000000000000FCFEFE0202C2C2C2FEFE83
:106FD000FC00000000003F3F7F6060636363634329
:106FE000030000000000E0F0F81C0C0C1CF8F0E0BE
:106FF0000000000000003F3F3F020202023F3F3F0F
:1070000000000000000004FCFCFC848484FCFC788C
:10701000000000000000203F3F3F2121213F3F1E94
:10702000000000000000F0F8FC0C0404041C1C1814
:107030000000000000000F1F3F30202020383818CB
:1070400000000000000004FCFCFC04040CFCF8F050
:10705000000000000000203F3F3F2020303F1F0F76
:1070600000000000000004FCFCFC848484C4CC1CF0
:10707000000000000000203F3F3F21212123333842
:1070800000000000000004FCFCFC848484C4CC1CD0
:10709000000000000000203F3F3F210101030300EA
:1070A000000000000000F0F8FC0C0404043C3C3834
:1070B0000000000000000F1F3F302022223E3E3E15
:1070C000000000000000FCFCFC808080FCFCFC0058
:1070D0000000000000003F3F3F0101013F3F3F0033
:1070E000000000000000000404FCFCFC040400009C
:1070F0000000000000000020203F3F3F2020000053
:10710000000000000000000000000404FCFCFC047F
:1071100004000000001E1E3E202020203F3F1F00D4
:1071200000000000000004FCFCFCC0E0703C1C0CF3
:10713000000000000000203F3F3F03070E3C3830B6
:1071400000000000000004FCFCFC04000000000043
:10715000000000000000203F3F3F20202030383C4E
:10716000000000000000FCFCFC78F0E0F078FCFC83
:10717000FC00000000003F3F3F00000100003F3FD7
:107180003F0000000000FCFCFC70E0C08000FCFC44
:10719000FC00000000003F3F3F00000103073F3FAD
:1071A0003F0000000000E0F0F81C0C0C0C1CF8F094
:1071B000E00000000000070F1F38303030381F0F8C
:1071C00007000000000004FCFCFC848484FCFC78C4
:1071D000000000000000203F3F3F210101010100AD
:1071E000000000000000E0F8F81C0C040C1CF8F88B
:1071F000E00000000000071F1F18185C5E7E7F7F04
:1072000047000000000004FCFCFC848484FCFC7843
:10721000000000000000203F3F3F0101033F3F3CD2
:1072200000000000000078FCFC84848484BC3C38AE
:107230000000000000001C3C3D212121213F3F1E99
:107240000000000000001C0C0404FCFCFC04040C06
:107250001C0000000000000020203F3F3F202000D5
:10726000000000000000FCFCFC000000FCFCFC0036
:107270000000000000001F3F3F2020203F3F1F0074
:10728000000000000000FCFCFC000000FCFCFC0016
:10729000000000000000070F1F3830381F0F0700E4
:1072A000000000000000FCFCFC0000800000FCFC72
:1072B000FC0000000000030F3F3C3C0F3C3C3F0F34
:1072C0000300000000001C3C7CE0C0E07C3C1C0093
:1072D000000000000000383C3E0703073E3C380039
:1072E0000000000000007CFCFC800080FCFC7C00B6
:1072F0000000000000000020213F3F3F212000004F
:107300000000000000003C1C0C0484C4E47C3C1C15
:10731000000000000000383C3E2723212030383C8C
:107320000000000000000000FCFCFC040404040059
:1073300000000000000000003F3F3F202020200010
:107340000000000000001C3870E0C0800000000059
:10735000000000000000000000000103070E1C18E0
:10736000302020000000000004040404FCFCFC00A9
:107370000000000000000000202020203F3F3F00D0
:107380000000000000002030381C0E0E1C38302099
:1073900000000000000000000000000000000000ED
:1073A00000000000000000000000000000000000DD
:1073B00000000000C0C0C0C0C0C0C0C0C0C0C0C0CD
:1073C000C0C0C00000000C0C3C30300000000000C9
:1073D00000000000000000000000000000000000AD
:1073E000000000000000004040404040C0C080005D
:1073F0000000000000001C3E3E2222223F1F3F20D2
:1074000000000000000004FCFCFC404040C0C080C4
:10741000000000000000203F1F3F2020203F3F1FB2
:1074200000000000000080C0C0404040C0C080009C
:107430000000000000001F3F3F20202039391900C4
:1074400000000000000080C0C0404044FCFCFC0480
:107450000000000000001F3F3F2020203F1F3F2072
:1074600000000000000080C0C0404040C0C080005C
:107470000000000000001F3F3F2222223B3B1B0078
:107480000000000000008080F8FCFC849C9C180038
:1074900000000000000021213F3F3F2121010000AA
:1074A00000000000000080C0C0404040C080C040DC
:1074B00000000000000047CFDF989898FFFF7F0092
:1074C00000000000000004FCFCFC804040C0C080C4
:1074D000000000000000203F3F3F0100003F3F3F11
:1074E00000000000000000404040DCDCDC00000048
:1074F000000000000000002020203F3F3F2020200F
:10750000000000000000000000404040DCDCDC0027
:107510000000000000002060E08080C0FFFF7F00CE
:1075200000000000000004FCFCFC000080C0C04023
:10753000000000000000203F3F3F02070F3D3830B1
:1075400000000000000000040404FCFCFC0000003B
:10755000000000000000002020203F3F3F202020AE
:10756000000000000000C0C0C04040C04040C0C09B
:107570008000000000003F3F3F00003F00003F3F11
:107580003F0000000000C0C0C0404040C0C08000BC
:107590000000000000003F3F3F0000003F3F3F0071
:1075A00000000000000080C0C0404040C0C080001B
:1075B0000000000000001F3F3F2020203F3F1F0031
:1075C00000000000000040C080C0404040C0C080BB
:1075D00000000000000080FFFFFF9010101F1F0F31
:1075E000000000000080C0C0404040C080C040009B
:1075F00000000000000F1F1F101090FFFFFF800011
:1076000000000000000040C0C0C080C0C0C0C080FA
:10761000000000000000203F3F3F21000001010169
:1076200000000000000080C0C040404040C080001A
:10763000000000000000193B232626263C3D1900CF
:107640000000000000004040E0F0F84040404000F2
:1076500000000000000000001F3F3F2038381800E5
:10766000000000000000C0C0C0000000C0C0C0009A
:107670000000000000001F3F3F2020203F1F3F2050
:10768000000000000000C0C0C0000000C0C0C0007A
:10769000000000000000070F1F3830381F0F0700E0
:1076A000000000000000C0C0C00000000000C0C01A
:1076B000C00000000000070F3F38380E38383F0F79
:1076C000070000000000C0C0C00000C0C0C0000033
:1076D00000000000000030393F0F0F3F393000003C
:1076E00000000000000000C0C0C0000000C0C0C01A
:1076F00000000000000080878F9FD8F8783F0F07B8
:10770000000000000000C0C0404040C0C0C00000F9
:1077100000000000000031383C2E272331380000E3
:107720000000000000008080C0787C3C0404040459
:107730000000000000000101031E3E3C202020202C
:1077400000000000000000000000FEFEFE0000003F
:10775000000000000000000000007F7F7F000000AC
:10776000000000000000040404043C7C78C0808019
:10777000000000000000202020203C3E1E030101EC
:107780000000000000383C3C040C1C3830203C3C1D
:107790001C000000000000000000000000000000CD
:1077A0000000000810205F00000000000000000042
:1077B00000000000000000000000F80000000000D1
:1077C0000000333000000000100C06100C06000012
:1077D0000000000000000040C07840C07840000475
:1077E0003F04043F040400007088FC0830000000DF
:1077F0001820FF211E0000F008F000E01800000033
:10780000211C031E211E0000F00888700000001ECD
:107810002123241927211010160E0000000000005B
:1078200000000000000000000000E018040200005A
:107830000000071820400000020418E000000000CB
:1078400040201807000000404080F08040400002C7
:1078500002010F01020200000000F0000000000120
:1078600001011F0101010000000000000000008074
:10787000B0700000000000000000000000000000E8
:1078800001010101010101000000000000000000F1
:10789000303000000000000000000080601804008C
:1078A0006018060100000000E010080810E0000069
:1078B0000F102020100F00001010F8000000000032
:1078C00020203F2020000000700808088870000079
:1078D00030282422213000003008888848300000F9
:1078E00018202020110E000000C02010F800000019
:1078F000070424243F240000F808888808080000B2
:1079000019212020110E0000E010888818000000C6
:107910000F112020110E0000380808C83808000098
:1079200000003F0000000000708808088870000018
:107930001C222121221C0000E010080810E0000099
:1079400000312222110F00000000C0C00000000022
:107950000000303000000000000080000000000047
:10796000008060000000000000804020100800003F
:107970000102040810200040404040404040000404
:1079800004040404040400000810204080000000E7
:1079900020100804020100007048080808F00000E8
:1079A00000003036010000C030C828E810E00007B1
:1079B00018272423140B000000C038E0000000202A
:1079C0003C23020227382008F888888870000020AD
:1079D0003F202020110E00C030080808083800079A
:1079E0001820202010080008F808080810E00020DF
:1079F0003F202020100F0008F88888E80810002099
:107A00003F20202320180008F88888E8081000206C
:107A10003F200003000000C03008080838000007BD
:107A2000182020221E020008F808000008F808208C
:107A30003F210101213F20000808F808080000004C
:107A400020203F2020000000000808F8080800C09F
:107A50008080807F00000008F888C0281808002077
:107A60003F20012638200008F80800000000002010
:107A70003F20202020300008F8F800F8F808002007
:107A80003F003F003F200008F830C00008F8082001
:107A90003F200007183F00E01008080810E0000F22
:107AA00010202020100F0008F808080808F0002017
:107AB0003F210101010000E01008080810E0000F5C
:107AC00018242438504F0008F888888888700020CF
:107AD0003F2000030C3020007088080808380000A0
:107AE00038202121221C00180808F8080818000076
:107AF00000203F2000000008F808000008F80800F7
:107B00001F202020201F000878880000C8380800A7
:107B10000007380E010000F80800F80008F800031C
:107B20003C0700073C03000818688080681808209C
:107B3000302C03032C30200838C800C83808000057
:107B400000203F2000000010080808C83808002066
:107B500038262120201800000000FE02020200004A
:107B600000007F40404000000C30C00000000000DA
:107B70000000010638C00000020202FE0000000002
:107B80004040407F000000000004020202040000A8
:107B90000000000000000000000000000000008065
:107BA000808080808080800002020400000000004D
:107BB00000000000000000000080808080000000C5
:107BC00019242222223F2008F800808000000000B3
:107BD0003F112020110E0000000080808000000076
:107BE0000E112020201100000000808088F8000085
:107BF0000E112020103F20000080808080000000B7
:107C00001F222222221300008080F088888818001A
:107C100020203F2020000000008080808080000025
:107C20006B94949493600008F8008080800000209A
:107C30003F210000203F20008098980000000000B5
:107C400020203F20200000000000809898000000C5
:107C5000C08080807F000008F800008080800020C5
:107C60003F24022D302000000808F800000000002A
:107C700020203F20200000808080808080800020A5
:107C80003F20003F20003F80800080808000002057
:107C90003F210000203F2000008080808000000005
:107CA0001F202020201F0080800080800000008096
:107CB000FFA12020110E00000000808080800000C5
:107CC0000E112020A0FF8080808000808080002016
:107CD000203F212000010000008080808080000083
:107CE00033242424241900008080E08080000000D8
:107CF00000001F2020000080800000008080000025
:107D00001F202020103F2080808000008080800085
:107D1000010E300806010080800080008080800F06
:107D2000300C030C300F0000808000808080000049
:107D300020312E0E312000808080000080808080E5
:107D4000818E701806010000808080808080000095
:107D500021302C2221300000000000807C02020033
:107D6000000000003F404000000000FF0000000055
:107D7000000000FF0000000002027C800000000004
:107D800040403F0000000000060101020204040020
:107D9000000000000000000608205F000000000056
:107DA000000000002F000000000700070000147F03
:107DB000147F1400242A7F2A12002313086462000F
:107DC000364955225000000503000000001C2241E6
:107DD00000000041221C000014083E08140008089E
:107DE0003E0808000000A06000000808080808001D
:107DF0000060600000002010080402003E51494568
:107E00003E0000427F40000042615149460021414E
:107E1000454B31001814127F1000274545453900A5
:107E20003C4A494930000171090503003649494976
:107E30003600064949291E0000363600000000566B
:107E40003600000008142241000014141414140019
:107E5000004122140800020151090600324959511B
:107E60003E007C1211127C007F49494936003E4198
:107E7000414122007F4141221C007F494949410084
:107E80007F09090901003E4149497A007F08080835
:107E90007F0000417F4100002040413F01007F08FA
:107EA000142241007F40404040007F020C027F00CE
:107EB0007F0408107F003E4141413E007F090909CF
:107EC00006003E4151215E007F09192946004649BE
:107ED0004949310001017F0101003F4040403F001E
:107EE0001F2040201F003F4038403F00631408140B
:107EF0006300070870080700615149454300007F8F
:107F000041410000552A552A55000041417F00009B
:107F1000040201020400404040404000000102040D
:107F200000002054545478007F48444438003844BA
:107F300044442000384444487F00385454541800C6
:107F4000087E0901020018A4A4A47C007F08040490
:107F5000780000447D4000004080847D00007F1058
:107F60002844000000417F4000007C041804780091
:107F70007C0804047800384444443800FC24242459
:107F8000180018242418FC007C0804040800485435
:107F900054542000043F444020003C4040207C00DA
:107FA0001C2040201C003C4030403C00442810284D
:107FB00044001CA0A0A07C004464544C4400000871
:107FC0007700000000007F0000000077080000003C
:107FD0001008100800141414141414004C45442004
:107FE0003D204F4E200056616C6F7220414443008B
:0F7FF0004C4544203D204F46460025752000009B
:020000040020DA
:08000000FFFFFFFFFFFFFFFF00
:020000040030CA
:0E000000210E191EFF8181FF0FC00FE00F407F
:00000001FF
