:04000000EAEF2BF008
:10575600C5809EA6B1EF2BF0B3EF2BF0ACEF2BF08C
:105766009E961200C5849EA6BBEF2BF0BDEF2BF0D4
:10577600B6EF2BF09E961200016E01C0C9FF9EA6E1
:10578600C7EF2BF0C9EF2BF0C2EF2BF09E96C5505A
:105796001200000E016E040E026E000E046E000E64
:1057A600036E040E066E000E056E35EC2DF012002B
:1057B600026EABEC2BF0780EBFEC2BF0000EBFECBC
:1057C6002BF00250BFEC2BF0B5EC2BF01200E00EE4
:1057D600F66E5B0EF76E000EF86E04EE00F014EE39
:1057E60000F00900F5CFEEFFE550E150FAE1E25096
:1057F600F8E100EE11F0070EEE6AE806FDE1000E94
:10580600F86E00014BEF2CF0016E9382938001C07D
:10581600C7FF280EC66E000EC56E800E0118D8A4EE
:1058260017EF2CF019EF2CF01DEF2CF0770EC86E49
:1058360027EF2CF00150D8A423EF2CF025EF2CF005
:1058460027EF2CF01D0EC86E1200000E066E000E1D
:10585600056E05500124036E06500220046E03C037
:10586600F6FF04C0F7FF000E0524D96E040E0620CD
:10587600DA6E0800F5CFDFFF054A062A040E065C3D
:10588600D8A048EF2CF04AEF2CF02CEF2CF01200A9
:105896000F0EC112000E07EC2CF0D6EC2CF0FE0E0B
:1058A600016E7B0E026E28EC2CF08FEC2CF07A0E3B
:1058B600106EC10E0F6E820EE82EFED70F2EFCD78D
:1058C600102EFAD7FE0E016E770E026E28EC2CF023
:1058D6008FEC2CF07A0E106EC10E0F6E820EE82E33
:1058E600FED70F2EFCD7102EFAD7FE0E016E730EC2
:1058F600026E28EC2CF08FEC2CF07A0E106EC10E96
:105906000F6E820EE82EFED70F2EFCD7102EFAD77A
:1059160052EF2CF000EF00F0000E036E210EDBECD0
:105926002BF0000EDBEC2BF07F0EDBEC2BF0220EC7
:10593600DBEC2BF0000EDBEC2BF0070EDBEC2BF098
:10594600000E056E000E046EABEC2BF0780EBFEC6D
:105956002BF0400EBFEC2BF0000E036E000E04245D
:10596600D96E040E0520DA6EDF50BFEC2BF0044A28
:10597600052A032A0F0E0364C3EF2CF0C5EF2CF0A3
:10598600B1EF2CF00406D8A00506B5EC2BF0044ABE
:10599600052A040E055CD8A0D3EF2CF0D5EF2CF029
:1059A600A7EF2CF01200070E0E6E170E0D6E6A0E84
:1059B600E82EFED70D2EFCD70E2EFAD700D0AE0E4F
:1059C600DBEC2BF0D50EDBEC2BF0800EDBEC2BF0BA
:1059D600A80EDBEC2BF03F0EDBEC2BF0D30EDBEC52
:1059E6002BF0000EDBEC2BF0400EDBEC2BF08D0EDB
:1059F600DBEC2BF0140EDBEC2BF0200EDBEC2BF0AB
:105A0600000EDBEC2BF0A10EDBEC2BF0C80EDBEC72
:105A16002BF0DA0EDBEC2BF0120EDBEC2BF0810E0A
:105A2600DBEC2BF0CF0EDBEC2BF0D90EDBEC2BF006
:105A3600F10EDBEC2BF0DB0EDBEC2BF0400EDBEC9F
:105A46002BF0A40EDBEC2BF0A60EDBEC2BF02E0ECF
:105A5600DBEC2BF0AF0EDBEC2BF0CCEC2BF08FEC71
:105A66002CF0120001C00BF002C00CF0055006101D
:105A7600D8A440EF2DF042EF2DF044EF2DF0EFEFDC
:105A86002DF00BC0D9FF0CC0DAFF03C0DFFF0550B5
:105A96000B24076E06500C20086EFF0E0724D96EE5
:105AA600FF0E0820DA6E03C0DFFF065007E1030E83
:105AB600055CD8B061EF2DF063EF2DF065EF2DF0AA
:105AC600EFEF2DF020EE01F00B50D9260C50DA2224
:105AD60003C0DFFF20EE02F00B50D9260C50DA226D
:105AE60003C0DFFF05500B24076E06500C20086E1E
:105AF600FE0E0724D96EFF0E0820DA6E03C0DFFF04
:105B060005500B24076E06500C20086EFD0E072468
:105B1600D96EFF0E0820DA6E03C0DFFF065007E1DC
:105B2600070E055CD8B09AEF2DF09CEF2DF09EEF96
:105B36002DF0EFEF2DF020EE03F00B50D9260C5090
:105B4600DA2203C0DFFF05500B24076E06500C2037
:105B5600086EFC0E0724D96EFF0E0820DA6E03C00D
:105B6600DFFF065007E1090E055CD8B0BDEF2DF04A
:105B7600BFEF2DF0C1EF2DF0EFEF2DF00BC007F0CA
:105B86000CC008F0071E081E074A082A030E071451
:105B9600096E0A6A09500B260A500C220950055E46
:105BA6000A50065AFC0E0516FF0E0616E6EF2DF0F5
:105BB6000BC0D9FF0CC0DAFF03C0DFFF0506D8A073
:105BC60006060B4A0C2A05500610D8A4EDEF2DF058
:105BD600EFEF2DF0DBEF2DF01200000000000000CB
:105BE60000000000000000000000000000000000AF
:105BF600000000000000000000000000000000009F
:105C0600000000000000000000000000000000008E
:105C1600000000000000000000000000000000007E
:105C2600000000000000000000000000000000006E
:105C3600000000000000000000000000000000005E
:105C4600000000000000000000000000000000004E
:105C5600000000000000000000000000000000003E
:105C660000000000FCFCFC0C0C0C0C0C0C0000C032
:105C7600C0C080C0C0C0C0800080C0C0C0C080009E
:105C8600000000FEFEFE80C0C0C0C0C08000000054
:105C9600008080C0C0C0C0C080000000008080C0FE
:105CA600C0C0C080FEFEFE0000008080C0C0C0C034
:105CB60080FEFEFE0000008080C0C0C0C0C0800024
:105CC6000000008080C0C0C0C080FEFEFE00000054
:105CD60000000000000000000000000000000000BE
:105CE60000000000FFFFFF8383838383800000FFA3
:105CF600FFFF01000001FFFFFF01000001FFFFFFA2
:105D0600000000FFFFFFC1808080C1FFFF3E000052
:105D16003EFFFFCD8C8C8C8FCFCF00003EFFFFC1A6
:105D2600808080C1FFFFFF00003EFFFFC1808080B2
:105D3600C1FFFFFF00003EFFFFCD8C8C8C8FCFCFC5
:105D460000003EFFFFC1808080C1FFFFFF00000012
:105D5600000000000000000000000000000000003D
:105D66000000000001010101010101010100000123
:105D76000101000000000101010000000001010115
:105D86000000000101010001010101000000000006
:105D960000000001010101010100000000000101F5
:105DA60001010100010101000000000101010101E2
:105DB60000010101000000000001010101010100D4
:105DC60000000000010101010100010101000000C5
:105DD60000000000000000000000000000000000BD
:105DE600000000FCFCFC000000000000008080C0F9
:105DF600C0C0C0C080000000FEFEFE80C0C0C0C0A3
:105E0600C080000000008080C0C0C0C0C08080008C
:105E16000000C0C0C080C0C0C00000008080C0C0FC
:105E2600C0C0C0800000C0C0F8F8F8C0C0C0000004
:105E36008080C0C0C0C0C08080000000C0C0C080DC
:105E4600C0C0C040C0C0800000000080C0C040008C
:105E5600000000000000000000000000000000003C
:105E6600000000FFFFFF80808080800070F9FD9CAD
:105E76008C8CCCFFFFFF0000FFFFFFC1808080C13C
:105E8600FFFF3E00003EFFFFC1808080C1FFFF3E56
:105E96000000FFFFFF03010101000070F9FD9C8C6B
:105EA6008CCCFFFFFF000000FFFFFF808080003EDC
:105EB600FFFFC1808080C1FFFF3E0000FFFFFF03A0
:105EC60001010100030F3FFEF8C0FCFF1F030000A5
:105ED60000000000000000000000000000000000BC
:105EE60000000001010101010101010000000101A2
:105EF6000101000101010000010101000101010190
:105F06000000000000000000010101010100000086
:105F16000000010101000000000000000001010175
:105F26000100010101000000000101010101000062
:105F36000000010101010100000000000101010053
:105F4600000000000000181D1F0F030000000000E5
:105F5600000000000000000000000000000000003B
:105F6600000000000000000000000000000000002B
:105F7600000000000000000000000000000000001B
:105F8600000000000000000000000000000000000B
:105F960000000000000000000000000000000000FB
:105FA60000000000000000000000000000000000EB
:105FB60000000000000000000000000000000000DB
:105FC60000000000000000000000000000000000CB
:105FD60000000000000000000000001010205F001C
:105FE60000000000000000000000000000000000AB
:105FF600000000000000000000000000000000009B
:10600600000000F8FCFCFCF80000000000000000A6
:106016000000000073737300000000000000000021
:106026000000001E3E3E0000003E3E1E0000000036
:10603600000000000000000000000000000000005A
:10604600303030FEFE30303030FEFE303030000072
:106056000C0C0C7F7F0C0C0C0C7F7F0C0C0C0000C6
:106066000000F0F898FE9898FE9898180000000036
:1060760000001819197F19197F191F0F0000000059
:1060860000000038383880C0E0703800000000009A
:106096000000001C0E0703011C1C1C000000000071
:1060A600000038FCC4C4FC3800000080000000007A
:1060B60000001E3F2121333F1E1E37230000000033
:1060C600000000203C3C1C00000000000000000016
:1060D60000000000000000000000000000000000BA
:1060E600000000C0E0F0381C0C04040000000000B2
:1060F60000000003070F1C383020200000000000BD
:1061060000000004040C1C38F0E0C0000000000091
:10611600000000202030381C0F070300000000009C
:1061260000808890E0E0FCFCE0E0908880000000C1
:106136000001110907073F3F070709110100000089
:10614600000000808080F0F0808080000000000069
:106156000000000101010F0F010101000000000015
:106166000000000000000000000000000000000029
:1061760000000040787838000000000000000000B1
:106186000000808080808080808080800000000009
:1061960000000101010101010101010100000000EF
:1061A60000000000000000000000000000000000E9
:1061B6000000000038383800000000000000000031
:1061C600000000000000000080C0E070381C0000E5
:1061D60000002030381C0E070301000000000000FC
:1061E6000000F8FCFC0484E474FCFCF800000000E9
:1061F60000001F3F3F2E2721203F3F1F00000000C9
:106206000000606060F0FCFC000000000000000080
:1062160000002020203F3F3F2020200000000000FB
:106226000000181C1C040484CCFC7830000000001C
:10623600000030383C2E2723213838380000000073
:106246000000181C1C848484CC7C7830000000007C
:106256000000183838212121333E1E0C00000000B2
:10626600000080C0603018FCFCFC0000000000004C
:10627600000003030323233F3F3F232300000000C6
:106286000000FCFCFC848484848404040000000078
:106296000000193939212121333F1F0E000000006B
:1062A6000000E0F0F89C8C848484800000000000EC
:1062B60000001F3F3F212121213F3F1F000000001A
:1062C60000003C3C3C0404040484FCFC7C0000000C
:1062D6000000000000383C3E0703010000000000FB
:1062E6000000787CFCC4C48484FC7C780000000038
:1062F60000001E3E3F212123233F3E1E00000000DA
:106306000000F8FCFC84848484FCFCF80000000097
:106316000000000121212131391F0F070000000074
:106326000000000000707070000000000000000017
:1063360000000000000E0E0E00000000000000002D
:1063460000000000007070700000000000000000F7
:1063560000000000101E1E0E0000000000000000DD
:10636600000080C0E070381C0E060200000000002D
:1063760000000103070E1C3870604000000000009A
:106386000060606060606060606060606000000087
:1063960000060606060606060606060606000000AF
:1063A600000002060E1C3870E0C0800000000000ED
:1063B6000000406070381C0E07030100000000005A
:1063C6000000181C0C0E0686CEFC7C38000000006F
:1063D600000000000000737373000000000000005E
:1063E6000000FCFEFE0202C2C2C2FEFEFC0000006D
:1063F60000003F3F7F606063636363430300000008
:106406000000E0F0F81C0C0C1CF8F0E000000000A6
:1064160000003F3F3F020202023F3F3F00000000F4
:10642600000004FCFCFC848484FCFC780000000072
:106436000000203F3F3F2121213F3F1E000000007A
:106446000000F0F8FC0C0404041C1C1800000000FA
:1064560000000F1F3F3020202038381800000000B1
:10646600000004FCFCFC04040CFCF8F00000000036
:106476000000203F3F3F2020303F1F0F000000005C
:10648600000004FCFCFC848484C4CC1C00000000D6
:106496000000203F3F3F2121212333380000000028
:1064A600000004FCFCFC848484C4CC1C00000000B6
:1064B6000000203F3F3F21010103030000000000D0
:1064C6000000F0F8FC0C0404043C3C38000000001A
:1064D60000000F1F3F302022223E3E3E00000000FB
:1064E6000000FCFCFC808080FCFCFC00000000003E
:1064F60000003F3F3F0101013F3F3F000000000019
:106506000000000404FCFCFC040400000000000081
:1065160000000020203F3F3F202000000000000038
:106526000000000000000404FCFCFC040400000061
:10653600001E1E3E202020203F3F1F0000000000BE
:10654600000004FCFCFCC0E0703C1C0C00000000D9
:106556000000203F3F3F03070E3C3830000000009C
:10656600000004FCFCFC0400000000000000000029
:106576000000203F3F3F20202030383C0000000034
:106586000000FCFCFC78F0E0F078FCFCFC0000006D
:1065960000003F3F3F00000100003F3F3F0000007A
:1065A6000000FCFCFC70E0C08000FCFCFC0000006D
:1065B60000003F3F3F00000103073F3F3F00000050
:1065C6000000E0F0F81C0C0C0C1CF8F0E0000000D9
:1065D6000000070F1F38303030381F0F070000004B
:1065E600000004FCFCFC848484FCFC7800000000B1
:1065F6000000203F3F3F2101010101000000000093
:106606000000E0F8F81C0C040C1CF8F8E000000090
:106616000000071F1F18185C5E7E7F7F4700000082
:10662600000004FCFCFC848484FCFC780000000070
:106636000000203F3F3F0101033F3F3C00000000B8
:10664600000078FCFC84848484BC3C380000000094
:1066560000001C3C3D212121213F3F1E000000007F
:1066660000001C0C0404FCFCFC04040C1C000000D0
:106676000000000020203F3F3F20200000000000D7
:106686000000FCFCFC000000FCFCFC00000000001C
:1066960000001F3F3F2020203F3F1F00000000005A
:1066A6000000FCFCFC000000FCFCFC0000000000FC
:1066B6000000070F1F3830381F0F070000000000CA
:1066C6000000FCFCFC0000800000FCFCFC0000005C
:1066D6000000030F3F3C3C0F3C3C3F0F0300000013
:1066E60000001C3C7CE0C0E07C3C1C00000000007C
:1066F6000000383C3E0703073E3C3800000000001F
:1067060000007CFCFC800080FCFC7C00000000009B
:1067160000000020213F3F3F212000000000000034
:1067260000003C1C0C0484C4E47C3C1C00000000FB
:106736000000383C3E2723212030383C0000000072
:1067460000000000FCFCFC0404040400000000003F
:10675600000000003F3F3F202020200000000000F6
:1067660000001C3870E0C08000000000000000003F
:106776000000000000000103070E1C183020200056
:106786000000000004040404FCFCFC0000000000FF
:1067960000000000202020203F3F3F0000000000B6
:1067A60000002030381C0E0E1C383020000000007F
:1067B60000000000000000000000000000000000D3
:1067C60000000000000000000000000000000000C3
:1067D600C0C0C0C0C0C0C0C0C0C0C0C0C0C0C00073
:1067E60000000C0C3C3030000000000000000000EF
:1067F6000000000000000000000000000000000093
:106806000000004040404040C0C080000000000042
:1068160000001C3E3E2222223F1F3F2000000000B7
:10682600000004FCFCFC404040C0C08000000000AA
:106836000000203F1F3F2020203F3F1F0000000098
:10684600000080C0C0404040C0C080000000000082
:1068560000001F3F3F2020203939190000000000AA
:10686600000080C0C0404044FCFCFC040000000066
:1068760000001F3F3F2020203F1F3F200000000058
:10688600000080C0C0404040C0C080000000000042
:1068960000001F3F3F2222223B3B1B00000000005E
:1068A60000008080F8FCFC849C9C1800000000001E
:1068B600000021213F3F3F21210100000000000090
:1068C600000080C0C0404040C080C04000000000C2
:1068D600000047CFDF989898FFFF7F000000000078
:1068E600000004FCFCFC804040C0C08000000000AA
:1068F6000000203F3F3F0100003F3F3F00000000F7
:10690600000000404040DCDCDC000000000000002D
:106916000000002020203F3F3F20202000000000F4
:106926000000000000404040DCDCDC00000000000D
:1069360000002060E08080C0FFFF7F0000000000B4
:10694600000004FCFCFC000080C0C0400000000009
:106956000000203F3F3F02070F3D38300000000097
:10696600000000040404FCFCFC0000000000000021
:106976000000002020203F3F3F2020200000000094
:106986000000C0C0C04040C04040C0C08000000001
:1069960000003F3F3F00003F00003F3F3F00000038
:1069A6000000C0C0C0404040C0C0800000000000E1
:1069B60000003F3F3F0000003F3F3F000000000057
:1069C600000080C0C0404040C0C080000000000001
:1069D60000001F3F3F2020203F3F1F000000000017
:1069E600000040C080C0404040C0C08000000000A1
:1069F600000080FFFFFF9010101F1F0F0000000017
:106A06000080C0C0404040C080C040000000000080
:106A1600000F1F1F101090FFFFFF800000000000F6
:106A2600000040C0C0C080C0C0C0C08000000000E0
:106A36000000203F3F3F210000010101000000004F
:106A4600000080C0C040404040C080000000000000
:106A56000000193B232626263C3D190000000000B5
:106A660000004040E0F0F8404040400000000000D8
:106A7600000000001F3F3F203838180000000000CB
:106A86000000C0C0C0000000C0C0C0000000000080
:106A960000001F3F3F2020203F1F3F200000000036
:106AA6000000C0C0C0000000C0C0C0000000000060
:106AB6000000070F1F3830381F0F070000000000C6
:106AC6000000C0C0C00000000000C0C0C000000040
:106AD6000000070F3F38380E38383F0F0700000018
:106AE6000000C0C0C00000C0C0C000000000000020
:106AF600000030393F0F0F3F393000000000000022
:106B0600000000C0C0C0000000C0C0C000000000FF
:106B1600000080878F9FD8F8783F0F07000000009D
:106B26000000C0C0404040C0C0C0000000000000DF
:106B3600000031383C2E27233138000000000000C9
:106B460000008080C0787C3C04040404000000003F
:106B560000000101031E3E3C202020200000000012
:106B6600000000000000FEFEFE0000000000000025
:106B76000000000000007F7F7F0000000000000092
:106B86000000040404043C7C78C0808000000000FF
:106B96000000202020203C3E1E03010100000000D2
:106BA60000383C3C040C1C3830203C3C1C000000E7
:106BB60000000000000000000000000000000008C7
:106BC60010205F0000000000000000000000000030
:106BD600000000000000F800000000000000333054
:106BE60000000000100C06100C060000000000005B
:106BF60000000040C07840C0784000043F04043FD5
:106C0600040400007088FC08300000001820FF21F2
:106C16001E0000F008F000E018000000211C031E12
:106C2600211E0000F00888700000001E2123241990
:106C360027211010160E00000000000000000000C2
:106C4600000000000000E018040200000000071821
:106C560020400000020418E0000000004020180751
:106C6600000000404080F0804040000202010F0119
:106C7600020200000000F0000000000101011F01F7
:106C8600010100000000000000000080B07000005C
:106C960000000000000000000000000001010101EA
:106CA600010101000000000000000000303000007B
:106CB6000000000000000080601804006018060153
:106CC60000000000E010080810E000000F1020206F
:106CD600100F00001010F8000000000020203F20D8
:106CE6002000000070080808887000003028242260
:106CF6002130000030088888483000001820202005
:106D0600110E000000C02010F80000000704242423
:106D16003F240000F8088888080800001921202070
:106D2600110E0000E0108888180000000F112020C6
:106D3600110E0000380808C83808000000003F009F
:106D46000000000070880808887000001C222121BD
:106D5600221C0000E010080810E00000003122228A
:106D6600110F00000000C0C000000000000030301D
:106D760000000000000080000000000000806000AD
:106D860000000000008040201008000001020408F6
:106D960010200040404040404040000404040404E9
:106DA60004040000081020408000000020100804A1
:106DB600020100007048080808F0000000003036A4
:106DC600010000C030C828E810E000071827242377
:106DD600140B000000C038E0000000203C23020233
:106DE60027382008F8888888700000203F20202057
:106DF600110E00C0300808080838000718202020A7
:106E060010080008F808080810E000203F2020209D
:106E1600100F0008F88888E8081000203F2020237B
:106E260020180008F88888E8081000203F20000392
:106E3600000000C03008080838000007182020228B
:106E46001E020008F808000008F808203F2101018A
:106E5600213F20000808F8080800000020203F20F5
:106E660020000000000808F8080800C08080807F25
:106E760000000008F888C028180800203F200126D6
:106E860038200008F8080000000000203F202020DD
:106E960020300008F8F800F8F80800203F003F000E
:106EA6003F200008F830C00008F808203F200007FF
:106EB600183F00E01008080810E0000F10202020FE
:106EC600100F0008F808080808F000203F2101010B
:106ED600010000E01008080810E0000F182424380C
:106EE600504F0008F8888888887000203F200003EB
:106EF6000C3020007088080808380000382021214E
:106F0600221C00180808F8080818000000203F2076
:106F160000000008F808000008F808001F202020DC
:106F2600201F000878880000C83808000007380EBF
:106F3600010000F80800F80008F800033C07000705
:106F46003C0300081868808068180820302C03036A
:106F56002C30200838C800C83808000000203F2020
:106F660000000010080808C838080020382621202C
:106F7600201800000000FE020202000000007F4010
:106F8600404000000C30C000000000000000010678
:106F960038C00000020202FE000000004040407FB0
:106FA60000000000000402020204000000000000CD
:106FB600000000000000000000000080808080804B
:106FC6008080800002020400000000000000000033
:106FD600000000000080808080000000192422222A
:106FE600223F2008F8008080000000003F1120208A
:106FF600110E000000008080800000000E1120208D
:10700600201100000000808088F800000E1120206A
:10701600103F200000808080800000001F22222276
:10702600221300008080F0888888180020203F20E6
:107036002000000000808080808000006B94949483
:1070460093600008F8008080800000203F21000047
:10705600203F2000809898000000000020203F205C
:10706600200000000000809898000000C08080800A
:107076007F000008F8000080808000203F24022D59
:10708600302000000808F8000000000020203F2003
:107096002000008080808080808000203F20003F8C
:1070A60020003F8080008080800000203F2100007B
:1070B600203F200000808080800000001F202020CC
:1070C600201F00808000808000000080FFA120201B
:1070D600110E000000008080808000000E1120202C
:1070E600A0FF80808080008080800020203F2120BB
:1070F600000100000080808080800000332424246A
:10710600241900008080E0808000000000001F201D
:107116002000008080000000808000001F202020CA
:10712600103F20808080000080808000010E3008A3
:1071360006010080800080008080800F300C030CE8
:10714600300F0000808000808080000020312E0EED
:10715600312000808080000080808080818E7018C1
:1071660006010000808080808080000021302C2273
:1071760021300000000000807C02020000000000B8
:107186003F404000000000FF00000000000000FF3C
:107196000000000002027C800000000040403F002A
:1071A60000000000060101020204040000000000C5
:1071B6000000000608205F0000000000000000003C
:1071C6002F000000000700070000147F147F140042
:1071D600242A7F2A120023130864620036495522A6
:1071E6005000000503000000001C22410000004181
:1071F600221C000014083E08140008083E08080077
:107206000000A06000000808080808000060600090
:1072160000002010080402003E5149453E0000428D
:107226007F4000004261514946002141454B3100F3
:107236001814127F10002745454539003C4A494934
:1072460030000171090503003649494936000649EF
:1072560049291E00003636000000005636000000A0
:1072660008142241000014141414140000412214BE
:107276000800020151090600324959513E007C12AC
:1072860011127C007F49494936003E4141412200A6
:107296007F4141221C007F49494941007F09090974
:1072A60001003E4149497A007F0808087F000041F5
:1072B6007F4100002040413F01007F081422410029
:1072C6007F40404040007F020C027F007F04081090
:1072D6007F003E4141413E007F09090906003E41CB
:1072E60051215E007F091929460046494949310066
:1072F60001017F0101003F4040403F001F20402028
:107306001F003F4038403F0063140814630007081D
:1073160070080700615149454300007F4141000064
:10732600552A552A55000041417F000004020102FA
:107336000400404040404000000102040000205488
:10734600545478007F48444438003844444420006C
:10735600384444487F00385454541800087E0901C4
:10736600020018A4A4A47C007F080404780000444A
:107376007D4000004080847D00007F10284400008E
:1073860000417F4000007C04180478007C08040457
:107396007800384444443800FC2424241800182477
:1073A6002418FC007C0804040800485454542000A7
:1073B600043F444020003C4040207C001C204020EC
:1073C6001C003C4030403C004428102844001CA0CF
:1073D600A0A07C004464544C4400000877000000E0
:1073E60000007F0000000077080000001008100869
:1073F600001414141414140000000000000000000F
:107406000000000000000000000000000000000076
:107416000000000000000000000000000000000066
:107426000000000000000000000000000000000056
:107436000000000000000000000000000000000046
:10744600000000000000E0F0F078383838383838AE
:1074560038383838383838383838383838383838A6
:1074660038383838F0F0E000000000000000000076
:107476000000000000000000000000000000E0F82E
:10748600FCFC1E0E070787C3E3E3E36363E3E3C382
:107496008303030303030303030303030303030336
:1074A60003030303030303030303030303030303A6
:1074B6000303030303030303030303030303030396
:1074C6000303030303071F3F7F706060606363630A
:1074D600636060606063636362606060636363638C
:1074E600606060707F7F3F0703030707070E1EFC7F
:1074F600FCF8E00000000000000000000000FFFFB4
:10750600FFFF0000000003070F0F0E0C0C0F0F0704
:107516000300808080FCFCFCFC808080FCFCFCFC82
:10752600C08080C0FCFCFCFC808080C0FCFCFCC0F1
:10753600808080FCFCFCFC80808000000000000055
:1075460000000000000000000040F0F8F83C1C0CB1
:107556000C0C0C1CBCF8F8F040000000E0F0F8F849
:107566001C1C0C0C0C0C1CFCF8F8E000000000FFC6
:10757600FFFFFF0000000000000000000000FFFF0A
:10758600FFFF0000000000000000C6C6C6C6C6C653
:10759600C6FFFFFFFF01010101F9F9F93939393950
:1075A600393939393939393939393939393939F985
:1075B600F9F9F901010101FFFFFFEEC6C6C6C6C60D
:1075C600C6C600000000000000C0C1C3C3C7C7C6CE
:1075D600C6C6C6C7C7C3C3C1C0C0C0C0C0C1C3C773
:1075E600C7C7C6C6C6C6C7C7C3C3C100000000FF1B
:1075F600FFFFFF0000000000000000000000FFFF8A
:10760600FFFF0000000000000000181818181818E6
:1076160018FFFFFFFF00000000FFFFFF0000000053
:10762600000000000000000000000000000000FF55
:10763600FFFFFF00000000FFFFFFBD181818181815
:107646001818000000000000007FFFFFFFE0E0E0E8
:10765600E0E0E0E0E0E0E0E0E0E0E0E0E0E0E0E024
:10766600E0E0E0E0E0E0E0FFFFFFFF00000000FFF9
:10767600FFFFFF0000000000000000000000FFFF09
:10768600FFFF000000000000000073737373737344
:1076960073FFFFFFFF808080808F8F8F8C8C8C8C98
:1076A6008C8C8C8C8C8C8C8C8C8C8C8C8C8C8C8F11
:1076B6008F8F8F80808080FFFFFF77737373737364
:1076C60073730000000080C0C0E0E06070707060FE
:1076D600E0E0C0800000000000FCFCFC1C0C0C0C70
:1076E6000C0C8C8C8C8C8C8C8C0C0C0C0C0C1CFF51
:1076F600FFFFFF00000000000000000000003FFF49
:10770600FFFFC08000000000000000000000000035
:1077160000000101013F3F3F3F0101013F3F3F3F65
:10772600010101013F3F3F3F010101033F3F3F038D
:107736000101013F3F3F3F01010000000000000042
:10774600000000000000070F1F1D383830303838A1
:107756003C1F1F0F0700000000FFFFFF0000000096
:107766000E1F1F3F3B31393F3F1F0E000080C0FFF9
:10777600FFFF3F00000000000000000000000000C6
:107786000101030307070707070707070707070797
:107796000707070707070707070707070707070773
:1077A6000707070707070707070707070707070763
:1077B6000707070707070707070707070707070753
:1077C6000707070707070707070707070707070743
:1077D6000707070707070707070707070707070733
:1077E6000707070707070707070707070703030131
:1077F6000100000000000000000000000000000082
:107806000000000000000000000000000000000072
:107816000000000000000000000000000000000062
:1078260000000000000080E0E0F0F070707878F072
:10783600F0E0E0C080000000000000000000000052
:107846000000000000000000000000000000000032
:107856000000000000000000000000000000000022
:107866000000000000000000000000000000000012
:107876000000000000000000000000000000000002
:1078860000000000000000000000000000000000F2
:1078960000000000000000000000000000000000E2
:1078A6000000003CFEFFFF7F0E000000000000000D
:1078B6000101071F3FFFFEFCF0C0000000000000B2
:1078C60000000000000000000000000000000000B2
:1078D60000000000000000000000000000000000A2
:1078E6000000000000000000000000000000000092
:1078F6000000000000000000000000000000000082
:107906000000000000000000000000000000000071
:107916000000000000000000000000000000000061
:107926000000000007030000000000000000000047
:1079360000000080E0FBFFFFFFFFF8E00000000012
:107946000000000000000000000000000000000031
:1079560000000000000000000000000000000080A1
:10796600C0C0808000000000000000000000000091
:107976000000000000000000000000000000000001
:1079860000000000000000000000000000000000F1
:1079960000000000000000000000000000000000E1
:1079A60000000000000000000000000000000000D1
:1079B60000E0FCFFFFFFFFFFFFFFFFFF1B000000D3
:1079C60000000000000000000000000000000000B1
:1079D60000E0F0F8F8F8F8F8F8F8F8F8F8F8FFFF2B
:1079E600FFFFFF3F7F7EFCF8F8F0E0C080800000DC
:1079F6000000000000000000000000000000000081
:107A06000000000000000000000000000080C0C070
:107A1600C0800000C0E0E0000080C0E070F0F00030
:107A2600C0E0F0389C9CCCCEDCF8F0F0F8FCFEFF11
:107A3600FFFFFFFFFFFFFFFFDFCFE1E0C0C08000D9
:107A46000000000000000000000000000000000030
:107A560000FFFFFFFFFFC0C0C0C0C0C0C0C0C0C0A5
:107A6600C0808000000080C1E3F7F7FFFFFF7F3E84
:107A76001C000000000000000000000080C0C0E004
:107A8600E0E0E0E0C0C0C0C0C0E0E0E0F8FFE3E155
:107A9600CFFFFCE0EFFFFFF8F8FFFFFDFCFEFFFF66
:107AA600FFFFFFFFFFFFFFFFFFFFFFFFFFFFFFFFE0
:107AB600FF7F7F3F7FEFCF8F0F071C3870E1C387B3
:107AC600060C080000000000000000000000000096
:107AD60000030707070707070707070707077FFFCB
:107AE600FFFFFFFE7F3F1F0F0F070301000000008F
:107AF6000000000000000000000000001F3F3F27BC
:107B06002F07070703030303010101010101010117
:107B16004041416163E3E3F3F3F3FFFFFFFFFFFF40
:107B2600FFFFFFFFFFFFFFF7070303030301030F39
:107B36003E78E080000001010307060C08080903EF
:107B46000302020000000000000000000000000028
:107B5600000000000000000000000000000000001F
:107B6600010100000000000000000000000000000D
:107B760000000000000000000000000000000000FF
:107B860000000000000000000000000000000000EF
:107B96000004040C080808181818181D0F0F0F0FFA
:107BA60007070707030101000000000000000000AE
:107BB60000000001020200000000000000000000BA
:107BC60000000000000000000000000000000000AF
:107BD600000000000000000000000000000000009F
:107BE600000000000000000000000000000000008F
:107BF600000000000000000000000000000000007F
:107C0600000000000000000000000000000000006E
:107C160000000000000000C0E0E0E0C0000000003E
:107C2600000000000000000000000000000000004E
:107C3600000000000000000000000000000000003E
:107C4600000000000000000000000000000000002E
:107C5600000000000000000000000000000000001E
:107C6600000000000000000000000000000000000E
:107C760000000000000000000000000000000000FE
:107C860000000000000000000000000000000000EE
:107C960000000000C0F8FEFFFF7FFFFFFFF8C000F6
:107CA60000000000000000000000000000000000CE
:107CB6000000000000000000000000C0E0F0F8FC3A
:107CC600FC7C3E3E3E3E3E3E3E3E3E3E3E3E3E3ED2
:107CD6003E3E3E3E3E3E3E3E3E3E3E3E3E3E3E3EBE
:107CE6003E3E3E3E3E3E3E3E3E3E3E7CFCFCF8F088
:107CF600E0C00000000000000000000000008080DE
:107D0600C0C0C0C0C0C0C0C0C0C0C0C0C0C0C0C06D
:107D1600C0C0F0FEFFFF7F1F0300030F7FFFFFFEC3
:107D2600F0C0C0C0C0C0C0C0C0C0C0C0C0C0C0C01D
:107D3600C0C0C080800000000000FFFFFFFFFF0101
:107D4600000000000000000000000000000000002D
:107D5600000000000000000000000000000000001D
:107D66000000000000000000000000000001FFFF0E
:107D7600FFFFFF00000000000000000000000307F6
:107D86000F0F1F3F3F7FFFFFFFF7F7E7C7C78707C5
:107D960007070707030300000000000000030307AE
:107DA6000707070787C7C7E7F7F7FFFFFF7F3F3FCD
:107DB6001F0F0F07030000000000FFFFFFFFFF007B
:107DC60000000000000000000000000000000000AD
:107DD600000000000000000000000000000000009D
:107DE6000000000000000000000000000000FFFF8F
:107DF600FFFFFF0000000000000000000000000080
:107E0600000000000000000001030387FFFFFFFFE2
:107E1600FF1C0000000000000080000000000000C1
:107E2600001CFFFFFFFFFF870303010000000000A7
:107E360000000000000000000000FFFFFFFFFF0041
:107E4600000000000000000000000000000000002C
:107E5600000000000000000000000000000000001C
:107E66000000000000000000000000000000FFFF0E
:107E7600FFFFFF00000000000000000000000000FF
:107E8600000000000000000000E0FCFFFFFFFFE72D
:107E9600E0F0F8F8FC7E7E3F1F1F1F3F7E7EFCF859
:107EA600F8F0E0E7FFFFFFFFFCE000000000000045
:107EB600000000000000000000001FFFFFFFFFE0C1
:107EC600C08080800000000000000000000000006C
:107ED600000000000000000000000000000000009C
:107EE600000000000000000000008080C0E0FFFFEE
:107EF600FFFF3F000000000000000000000000003F
:107F060000000000000000003F3F3F3F1F0F0F072B
:107F16000303010100000000000000000000000152
:107F2600010303070F0F1F3F3F3F3F000000000004
:107F36000000000000000000000000000103070729
:107F46000F0F0F1F1F3F7FFEFCF8F0F0F8FCFE7EC0
:107F56003F1F1F1F1F1F1F1F1F1F1F1F1F1F1F1F0B
:107F66001F1F1F1F1F1F1F1F1F1F0F0F0F07070397
:107F760001000000000000000000000000000000FA
:107F860000000000000000000000000000000000EB
:107F960000000000000000000000000000000000DB
:107FA60000000000000000000000000000000000CB
:107FB60000000000000000000000000000000000BB
:107FC600000000000000000001010303030100009F
:107FD600000000000000000000000000000000009B
:107FE600000000000000000000000000000000008B
:097FF60000000000000000000082
:020000040020DA
:08000000FFFFFFFFFFFFFFFF00
:020000040030CA
:0E000000210E191EFF8181FF0FC00FE00F407F
:00000001FF
