:040000000DEF00F010
:0400080018EF14F0E9
:06001800FF007AEF16F074
:1026000000EC2900000000000000000000000000B5
:1026100000000000000000000000000000000000BA
:1026200000000000000000000000000000000000AA
:1026300000000000000000000000000000922E00DA
:10264000702E004E2E00000000742A00000000EEE4
:102650002B00000000000000000000000000862D9C
:1026600000B42E0000000000000EBE6E000EBF6E13
:10267000180EC06E000EC16E000EC26E000EC36E4C
:10268000C668C768E70EC86EC9680F0ECA6EF50E39
:10269000CB6E040100690869E70E106F1869070E18
:1026A000206FF40E286F000E016F000E096F000EF0
:1026B000116F000E196F000E216F000E296F000EB2
:1026C000026F000E0A6F180E126F000E1A6F000EC6
:1026D000226F000E2A6F03690B6913691B69070ECD
:1026E000236F2B6904690C6914691C690F0E246F30
:1026F0002C69000E0201896F000E886F000E876F33
:10270000000E866F280E726F200E2A6F130E716FE7
:10271000370E146F140E706F380E156F000E040113
:10272000056F000E066F000E076F000E0D6F000E96
:102730000E6F000E0F6F000E156F000E166F000E5D
:10274000176F000E256F000E266F000E276F120008
:10275000A7EC17F00009D8B4B0EF13F0B2EF13F004
:10276000BAEF13F0030E0D6E0201979B3EEC16F0CC
:1027700002EF14F0B2EC17F00009D8B4C2EF13F076
:10278000C4EF13F0D6EF13F086EC17F00009D8B4BD
:10279000CCEF13F0CEEF13F0D6EF13F0010E0D6E69
:1027A0000201979914EC17F002EF14F091EC17F076
:1027B0000009D8B4DEEF13F0E0EF13F0F0EF13F000
:1027C00086EC17F00009D8B4E8EF13F0EAEF13F045
:1027D000F0EF13F0020E0D6E02019799D2EF13F095
:1027E0009CEC17F00009D8B4F8EF13F0FAEF13F0EF
:1027F00000EF14F0030E0D6E0201979D02EF14F02E
:10280000020197990D50D8B408EF14F00AEF14F0B4
:1028100017EF14F002D817EF14F00500FA6E1750F6
:10282000FD6E1850FE6E1950FF6EFA501200120025
:10283000FAC429F5FBC42AF5A5A621EF14F023EF6D
:1028400014F02EEF14F0B5A628EF14F02AEF14F0D0
:102850002EEF14F0A8EC13F064EF14F0A5A033EF02
:1028600014F035EF14F040EF14F0B5A03AEF14F087
:102870003CEF14F040EF14F0D1EC17F064EF14F0DB
:10288000A5A445EF14F047EF14F052EF14F0B5A4EF
:102890004CEF14F04EEF14F052EF14F069EC14F01A
:1028A00064EF14F0A5A257EF14F059EF14F064EFA1
:1028B00014F0B5A25EEF14F060EF14F064EF14F0C2
:1028C000C7EC17F064EF14F02AC5FBF429C5FAF43D
:1028D000110002019BA56FEF14F071EF14F07CEF73
:1028E00014F09AA576EF14F078EF14F07CEF14F062
:1028F000EDEC16F0B0EF14F09BAF81EF14F083EF26
:1029000014F09EEF14F09AAF88EF14F08AEF14F0F1
:102910009EEF14F00C50D8B490EF14F092EF14F036
:102920009AEF14F0000E0C6E9A919A9F01EC17F03A
:10293000B0EF14F014EC17F078EF14F09BA3A3EFB2
:1029400014F0A5EF14F0B0EF14F09AA3AAEF14F06E
:10295000ACEF14F0B0EF14F037EC18F002019A93DA
:102960001200000ED9EC16F0020E3F6E380E3E6ECD
:10297000AD0EE82EFED73E2EFCD73F2EFAD700F044
:10298000030EADEC16F0680E3E6EE40EE82EFED798
:102990003E2EFCD700D0030EADEC16F0E40E00D0B6
:1029A00000D0E82EFCD700D000D0030EADEC16F01E
:1029B000020EADEC16F0280E04EC18F0C50EE82E51
:1029C000FED700F0070E276E0F0E04EC18F0C50EB0
:1029D000E82EFED700F0010E04EC18F02A0E3E6E31
:1029E0008E0EE82EFED73E2EFCD71200000E0201FE
:1029F000A16F000EA26F000EA36F000EA46F000E59
:102A0000A56F000EA66F000EA76F000EA86F000E38
:102A1000A96F000EAA6FB00EAB6F800EAC6F080EE0
:102A2000AD6F820EAE6F060EAF6F2E0EB06F000E42
:102A3000B16F800EB26F000EB36F000E2B6E000EE2
:102A40002C6E000E2D6E49EC17F0000E2B6E000E52
:102A50002C6E000E2D6E38EC17F0000E2B6E000E53
:102A60002C6E000E2D6E27EC17F0000E246E000E5B
:102A7000236E1200040E0201946F800E956F080EF3
:102A8000966F030E9C6F000E9A6F000E9B6F000EE8
:102A9000976F000E8D6F510E876F510E866FBDECD4
:102AA00017F002019B919B95948F050EE82EFED79F
:102AB00000F000F000F000F000F000F000F0020183
:102AC0009A919A959B857C0E2B6E300E2C6E000E83
:102AD0002D6E5AEC17F01200000E0301D96F000E94
:102AE000DA6F000EDB6F000EDC6F000EDF6F000E82
:102AF000E06F000EE56F000EE76F000EEC6F010E49
:102B0000EE6F000EEF6F000EF06F000EF16F000E13
:102B1000F26F000EF46F100EF56F000EF66F000EE0
:102B2000F76F000EF86F000EF96F3F0EFA6F840E0C
:102B3000F36FAF94B090120079EC17F0D68EB1EC31
:102B400014F0000E96EC16F02BC525F52CC526F5D5
:102B500026BEB4EF15F0DD0E255C050E2658D8A074
:102B6000B4EF15F0B6EF15F0B9EF15F0C396BAEF64
:102B700015F0C386290E416E960E406E7F0EE82E2C
:102B8000FED7402EFCD7412EFAD700F0A1EF15F06A
:102B90000DEF00F0386ED3EF15F03890E8EF15F038
:102BA0003880E8EF15F03550366E376A3750000A36
:102BB000D8B4DDEF15F0E8EF15F03650000AD8B4C0
:102BC000CDEF15F0010AD8B4D0EF15F0E8EF15F00D
:102BD0003850D9EC16F038843850D9EC16F03894C7
:102BE0003850D9EC16F0A00EE82EFED71200C3EC38
:102BF00016F00009D8A4FFEF15F001EF16F01DEF55
:102C000016F0010E016E2CC502F52DC503F5000E60
:102C10000C6E2EC504F52FC505F530C506F531C57A
:102C200007F5000E086E000E096E000E0B6E000E0A
:102C30000A6E000E0D6E5DEC16F01200D69AAF9083
:102C4000D680000E2B6E000E2C6E000E2D6EFDEC4D
:102C500017F0B490D682000E2B6E000E2C6E000E74
:102C60002D6EF6EC17F0B890D684000E2B6E000E89
:102C70002C6E000E2D6EEFEC17F0120027EC18F002
:102C800009EC18F0E5EC17F00EEC18F00201949F37
:102C9000DBEC17F002019B919B95948F050EE82EBB
:102CA000FED700F000F000F000F000F000F000F0BF
:102CB00002019A919A959B85120006500710D8B48C
:102CC00064EF16F066EF16F073EF16F0065013EC93
:102CD00018F00C50D8B46FEF16F071EF16F073EFD8
:102CE00016F02EEC18F00250022417EC18F02BEC22
:102CF00018F012007A0EF66E300EF76E000EF86EB7
:102D00000900F5C442F50900F5C443F501EE01F1EF
:102D1000270EEE6AE806FDE10401080E5D6F000E65
:102D20005E6F000E5F6F00019CEF15F02F6E2FC5D8
:102D3000ECF30301F39DF381F3B1A1EF16F0A3EFE0
:102D400016F09CEF16F0EB512E6E2D6AEA512D24F1
:102D50002B6E000E2E202C6E12003C6E3C50F00BA1
:102D60003A6E3CC539F50F0E39163938F00B3B6E0B
:102D7000000E356E3A50CAEC15F0000E356E3B5021
:102D8000CAEC15F01200010E2B6E0150D8A4CBEF47
:102D900016F0CDEF16F0D7EF16F0020198AFD3EF93
:102DA00016F0D5EF16F0D7EF16F0000E2B6E2B5065
:102DB0001200346E000E2D6E270E2C6E3450080952
:102DC000326E336A32C52EF533C52FF5000E316EE3
:102DD000010E306EF7EC15F01200000E016E000EC1
:102DE000036E0268000E046E000E056E000E086E83
:102DF000000E096E27EC18F009EC18F00EEC18F034
:102E000012000A500B10D8B408EF17F00AEF17F0B1
:102E10000DEF17F00A501FEC18F0D88002341BECAD
:102E200018F034EC18F0120037EC18F03AEC18F007
:102E30000009D8B41EEF17F020EF17F026EF17F0B7
:102E4000000E1FEC18F0000E23EC18F012002B50AF
:102E50002C102D10D8B42FEF17F031EF17F037EFFB
:102E600017F02BC50EF52CC50FF52DC510F512006A
:102E70002B502C102D10D8B440EF17F042EF17F064
:102E800048EF17F02BC511F52CC512F52DC513F51C
:102E900012002B502C102D10D8B451EF17F053EF17
:102EA00017F059EF17F02BC514F52CC515F52DC5E6
:102EB00016F512002B502C102D10D8B462EF17F01D
:102EC00064EF17F06AEF17F02BC517F52CC518F54E
:102ED0002DC519F51200600E0001AD6F000EAF6F29
:102EE000000EB36F080EB16F000EB06F000EAC6F26
:102EF00012006BEC17F034EC13F06CEC15F03AECBC
:102F000015F0F6EC14F01EEC16F01200020195BB61
:102F10008CEF17F08FEF17F0010E90EF17F0000E07
:102F20001200020198B797EF17F09AEF17F0010E11
:102F30009BEF17F0000E1200020197BDA2EF17F0F1
:102F4000A5EF17F0010EA6EF17F0000E1200020118
:102F500097BBADEF17F0B0EF17F0010EB1EF17F020
:102F6000000E1200020198A7B8EF17F0BBEF17F0A0
:102F7000010EBCEF17F0000E1200A584A586A580F7
:102F8000A58202019B859B839B8F9781120004C5BC
:102F9000D9F405C5DAF4044A052ADF5023EC18F009
:102FA000120031EC18F008C5D9F409C5DAF4DF6E67
:102FB000084A092A1200A584A586A580A5820201D7
:102FC0009B859B839B8F97811200A594A596A590C6
:102FD000A592000E02019B6F000E976F12002BC589
:102FE0001AF52CC51BF52DC51CF512002BC51DF5BA
:102FF0002CC51EF52DC51FF512002BC520F52CC5BF
:1030000021F52DC522F512003D6E3D50ADEC16F0B8
:1030100012000201979B979D97991200000E0201E2
:10302000996F998512002B6E2BC58DF212002B6EB5
:103030002BC58FF21200286E28C58FF21200286E61
:1030400028C58DF21200286E28C58CF21200000EE1
:1030500002019A6F12000201948B12000201948DFA
:10306000120002018B5112000201948B1200020126
:0E307000949D120002018D51120027081200DB
:020000040030CA
:08000000FFFFF7FF9FFFFFFF68
:01000900FFF7
:00000001FF
